{"contracts/PermiPayBilling_ERC7715.sol":{"PermiPayBilling":{"abi":[{"inputs":[{"internalType":"address","name":"_usdc","type":"address"},{"internalType":"address","name":"_treasury","type":"address"}],"stateMutability":"nonpayable","type":"constructor"},{"anonymous":false,"inputs":[{"indexed":true,"internalType":"address","name":"user","type":"address"},{"indexed":true,"internalType":"address","name":"sessionAccount","type":"address"},{"indexed":false,"internalType":"uint256","name":"spendingLimit","type":"uint256"},{"indexed":false,"internalType":"uint256","name":"expiresAt","type":"uint256"},{"indexed":false,"internalType":"uint256","name":"timestamp","type":"uint256"}],"name":"PermissionGranted","type":"event"},{"anonymous":false,"inputs":[{"indexed":true,"internalType":"address","name":"user","type":"address"},{"indexed":true,"internalType":"address","name":"sessionAccount","type":"address"},{"indexed":false,"internalType":"uint256","name":"timestamp","type":"uint256"}],"name":"PermissionRevoked","type":"event"},{"anonymous":false,"inputs":[{"indexed":true,"internalType":"address","name":"user","type":"address"},{"indexed":false,"internalType":"uint256","name":"newSpendingLimit","type":"uint256"},{"indexed":false,"internalType":"uint256","name":"newExpiresAt","type":"uint256"},{"indexed":false,"internalType":"uint256","name":"timestamp","type":"uint256"}],"name":"PermissionUpdated","type":"event"},{"anonymous":false,"inputs":[{"indexed":true,"internalType":"address","name":"user","type":"address"},{"indexed":true,"internalType":"address","name":"sessionAccount","type":"address"},{"indexed":true,"internalType":"uint8","name":"serviceType","type":"uint8"},{"indexed":false,"internalType":"uint256","name":"cost","type":"uint256"},{"indexed":false,"internalType":"uint256","name":"remainingBudget","type":"uint256"},{"indexed":false,"internalType":"uint256","name":"timestamp","type":"uint256"}],"name":"ServiceExecuted","type":"event"},{"inputs":[],"name":"USDC","outputs":[{"internalType":"contract IERC20","name":"","type":"address"}],"stateMutability":"view","type":"function"},{"inputs":[{"internalType":"address","name":"","type":"address"},{"internalType":"address","name":"","type":"address"}],"name":"authorizedSessions","outputs":[{"internalType":"bool","name":"","type":"bool"}],"stateMutability":"view","type":"function"},{"inputs":[{"internalType":"address","name":"user","type":"address"},{"internalType":"address","name":"sessionAccount","type":"address"},{"internalType":"enum PermiPayBilling.ServiceType","name":"serviceType","type":"uint8"}],"name":"canExecuteService","outputs":[{"internalType":"bool","name":"","type":"bool"}],"stateMutability":"view","type":"function"},{"inputs":[{"internalType":"address","name":"user","type":"address"},{"internalType":"enum PermiPayBilling.ServiceType","name":"serviceType","type":"uint8"}],"name":"executeService","outputs":[{"internalType":"bool","name":"","type":"bool"}],"stateMutability":"nonpayable","type":"function"},{"inputs":[{"internalType":"address","name":"user","type":"address"}],"name":"getPermission","outputs":[{"internalType":"uint256","name":"spendingLimit","type":"uint256"},{"internalType":"uint256","name":"spentAmount","type":"uint256"},{"internalType":"uint256","name":"expiresAt","type":"uint256"},{"internalType":"bool","name":"isActive","type":"bool"},{"internalType":"address","name":"sessionAccount","type":"address"}],"stateMutability":"view","type":"function"},{"inputs":[{"internalType":"address","name":"sessionAccount","type":"address"},{"internalType":"uint256","name":"spendingLimit","type":"uint256"},{"internalType":"uint256","name":"durationSeconds","type":"uint256"}],"name":"grantPermission","outputs":[],"stateMutability":"nonpayable","type":"function"},{"inputs":[],"name":"owner","outputs":[{"internalType":"address","name":"","type":"address"}],"stateMutability":"view","type":"function"},{"inputs":[],"name":"revokePermission","outputs":[],"stateMutability":"nonpayable","type":"function"},{"inputs":[{"internalType":"enum PermiPayBilling.ServiceType","name":"","type":"uint8"}],"name":"servicePrices","outputs":[{"internalType":"uint256","name":"","type":"uint256"}],"stateMutability":"view","type":"function"},{"inputs":[{"internalType":"address","name":"newOwner","type":"address"}],"name":"transferOwnership","outputs":[],"stateMutability":"nonpayable","type":"function"},{"inputs":[],"name":"treasury","outputs":[{"internalType":"address","name":"","type":"address"}],"stateMutability":"view","type":"function"},{"inputs":[{"internalType":"enum PermiPayBilling.ServiceType","name":"serviceType","type":"uint8"},{"internalType":"uint256","name":"newPrice","type":"uint256"}],"name":"updateServicePrice","outputs":[],"stateMutability":"nonpayable","type":"function"},{"inputs":[{"internalType":"address","name":"","type":"address"}],"name":"userPermissions","outputs":[{"internalType":"uint256","name":"spendingLimit","type":"uint256"},{"internalType":"uint256","name":"spentAmount","type":"uint256"},{"internalType":"uint256","name":"expiresAt","type":"uint256"},{"internalType":"bool","name":"isActive","type":"bool"},{"internalType":"address","name":"sessionAccount","type":"address"}],"stateMutability":"view","type":"function"}],"evm":{"bytecode":{"linkReferences":{},"object":"60c060405234801561001057600080fd5b50604051610f91380380610f9183398101604081905261002f916100ef565b6001600160a01b039182166080521660a052600080546001600160a01b031916331781556001602052620493e07fa6eef7e35abe7026729641147f7915573c7e97b47efa546f5f6e3230263bcb495562061a807fcc69885fda6bcc1a4ace058b4a62bf5e179ea78fd58a1ccd71c22cc9b688792f55600290526207a1207fd9d16d34ffb15ba3a3d852f0d403e2ce1d691fb54de27ac87cd2f993f3ec330f55610122565b80516001600160a01b03811681146100ea57600080fd5b919050565b6000806040838503121561010257600080fd5b61010b836100d3565b9150610119602084016100d3565b90509250929050565b60805160a051610e3c610155600039600081816101670152610a6101526000818161029c0152610a930152610e3c6000f3fe608060405234801561001057600080fd5b50600436106100cf5760003560e01c806385fb94221161008c5780639afd21de116100665780639afd21de146102d1578063b426cbeb146102e4578063f2fde38b146102f7578063fb19db831461030a57600080fd5b806385fb94221461024d57806389a30271146102975780638da5cb5b146102be57600080fd5b8063017e1ab8146100d45780634debb5a8146101175780635363ae9b146101215780635ee2429b1461014f57806361d027b31461016257806383c1cd8a146101a1575b600080fd5b6101026100e2366004610c50565b600360209081526000928352604080842090915290825290205460ff1681565b60405190151581526020015b60405180910390f35b61011f61031d565b005b61014161012f366004610c92565b60016020526000908152604090205481565b60405190815260200161010e565b61011f61015d366004610cad565b610403565b6101897f000000000000000000000000000000000000000000000000000000000000000081565b6040516001600160a01b03909116815260200161010e565b61021a6101af366004610ce0565b6001600160a01b03908116600090815260026020818152604092839020835160a081018552815480825260018301549382018490529382015494810185905260039091015460ff81161515606083018190526101009091049095166080909101819052919490939190565b60408051958652602086019490945292840191909152151560608301526001600160a01b0316608082015260a00161010e565b61021a61025b366004610ce0565b600260208190526000918252604090912080546001820154928201546003909201549092919060ff81169061010090046001600160a01b031685565b6101897f000000000000000000000000000000000000000000000000000000000000000081565b600054610189906001600160a01b031681565b6101026102df366004610cfb565b6105e5565b61011f6102f2366004610d3e565b61070c565b61011f610305366004610ce0565b610790565b610102610318366004610d68565b610841565b336000908152600260205260409020600381015460ff1661037d5760405162461bcd60e51b81526020600482015260156024820152745065726d697373696f6e206e6f742061637469766560581b60448201526064015b60405180910390fd5b6003808201805460ff1990811680835533600081815260209586526040808220610100948590046001600160a01b0390811684529752908190208054909416909355925491519104909216917fddc354b2e01a1c04d0ff3f0a82abd6226f186a7e8d03cea079c60c6cd9600189906103f89042815260200190565b60405180910390a350565b6001600160a01b0383166104595760405162461bcd60e51b815260206004820152601760248201527f496e76616c69642073657373696f6e206163636f756e740000000000000000006044820152606401610374565b600082116104a25760405162461bcd60e51b8152602060048201526016602482015275125b9d985b1a59081cdc195b991a5b99c81b1a5b5a5d60521b6044820152606401610374565b600081116104e55760405162461bcd60e51b815260206004820152601060248201526f24b73b30b634b210323ab930ba34b7b760811b6044820152606401610374565b60006104f18242610da8565b6040805160a08101825285815260006020808301828152838501868152600160608087018281526001600160a01b038e811660808a0181815233808b526002808b528d8c209c518d5598518c8801559651978b019790975591516003998a01805497516001600160a81b0319909816911515610100600160a81b03191691909117610100979092169690960217909455958452868520838652845293869020805460ff19169094179093558451898152918201869052429482019490945293945091927fbc6ae1517c84ba3d8bc9a06f909ea29d8898c1b2ee9a06bd2cc39967dcbfb03c910160405180910390a350505050565b6001600160a01b038084166000908152600260208181526040808420815160a08101835281548152600182015493810193909352928301549082015260039091015460ff811615156060830181905261010090910490931660808201529091610652576000915050610705565b42816040015111610667576000915050610705565b6001600160a01b0380861660009081526003602090815260408083209388168352929052205460ff1661069e576000915050610705565b6000600160008560028111156106b6576106b6610dbb565b60028111156106c7576106c7610dbb565b815260200190815260200160002054905081600001518183602001516106ed9190610da8565b11156106fe57600092505050610705565b6001925050505b9392505050565b6000546001600160a01b031633146107535760405162461bcd60e51b815260206004820152600a60248201526927b7363c9037bbb732b960b11b6044820152606401610374565b806001600084600281111561076a5761076a610dbb565b600281111561077b5761077b610dbb565b81526020810191909152604001600020555050565b6000546001600160a01b031633146107d75760405162461bcd60e51b815260206004820152600a60248201526927b7363c9037bbb732b960b11b6044820152606401610374565b6001600160a01b03811661081f5760405162461bcd60e51b815260206004820152600f60248201526e496e76616c6964206164647265737360881b6044820152606401610374565b600080546001600160a01b0319166001600160a01b0392909216919091179055565b6001600160a01b0382166000908152600260205260408120600381015460ff166108a55760405162461bcd60e51b81526020600482015260156024820152745065726d697373696f6e206e6f742061637469766560581b6044820152606401610374565b428160020154116108ed5760405162461bcd60e51b815260206004820152601260248201527114195c9b5a5cdcda5bdb88195e1c1a5c995960721b6044820152606401610374565b6001600160a01b038416600090815260036020908152604080832033845290915290205460ff166109595760405162461bcd60e51b815260206004820152601660248201527514d95cdcda5bdb881b9bdd08185d5d1a1bdc9a5e995960521b6044820152606401610374565b60006001600085600281111561097157610971610dbb565b600281111561098257610982610dbb565b8152602001908152602001600020549050600081116109d55760405162461bcd60e51b815260206004820152600f60248201526e496e76616c6964207365727669636560881b6044820152606401610374565b60008183600101546109e79190610da8565b8354909150811115610a3b5760405162461bcd60e51b815260206004820152601760248201527f5370656e64696e67206c696d69742065786365656465640000000000000000006044820152606401610374565b600183018190556040516323b872dd60e01b81526001600160a01b0387811660048301527f000000000000000000000000000000000000000000000000000000000000000081166024830152604482018490526000917f0000000000000000000000000000000000000000000000000000000000000000909116906323b872dd906064016020604051808303816000875af1158015610ade573d6000803e3d6000fd5b505050506040513d601f19601f82011682018060405250810190610b029190610dd1565b905080610b485760405162461bcd60e51b81526020600482015260146024820152731554d110c81d1c985b9cd9995c8819985a5b195960621b6044820152606401610374565b8354600090610b58908490610df3565b9050866002811115610b6c57610b6c610dbb565b60ff16336001600160a01b0316896001600160a01b03167f06026d0e43a8d5a82bba8851052b03a4fa95e225e0bd1b433648df946617759e878542604051610bc7939291909283526020830191909152604082015260600190565b60405180910390a480600003610c245760038501805460ff1916905560405142815233906001600160a01b038a16907fddc354b2e01a1c04d0ff3f0a82abd6226f186a7e8d03cea079c60c6cd96001899060200160405180910390a35b6001955050505050505b92915050565b80356001600160a01b0381168114610c4b57600080fd5b919050565b60008060408385031215610c6357600080fd5b610c6c83610c34565b9150610c7a60208401610c34565b90509250929050565b803560038110610c4b57600080fd5b600060208284031215610ca457600080fd5b61070582610c83565b600080600060608486031215610cc257600080fd5b610ccb84610c34565b95602085013595506040909401359392505050565b600060208284031215610cf257600080fd5b61070582610c34565b600080600060608486031215610d1057600080fd5b610d1984610c34565b9250610d2760208501610c34565b9150610d3560408501610c83565b90509250925092565b60008060408385031215610d5157600080fd5b610d5a83610c83565b946020939093013593505050565b60008060408385031215610d7b57600080fd5b610d8483610c34565b9150610c7a60208401610c83565b634e487b7160e01b600052601160045260246000fd5b80820180821115610c2e57610c2e610d92565b634e487b7160e01b600052602160045260246000fd5b600060208284031215610de357600080fd5b8151801515811461070557600080fd5b81810381811115610c2e57610c2e610d9256fea264697066735822122072c686ddabce63dc0ae8badfea6880c686f56f101ec2941f5fd58d7e1000b84f64736f6c63430008170033","opcodes":"PUSH1 0xC0 PUSH1 0x40 MSTORE CALLVALUE DUP1 ISZERO PUSH2 0x10 JUMPI PUSH1 0x0 DUP1 REVERT JUMPDEST POP PUSH1 0x40 MLOAD PUSH2 0xF91 CODESIZE SUB DUP1 PUSH2 0xF91 DUP4 CODECOPY DUP2 ADD PUSH1 0x40 DUP2 SWAP1 MSTORE PUSH2 0x2F SWAP2 PUSH2 0xEF JUMP JUMPDEST PUSH1 0x1 PUSH1 0x1 PUSH1 0xA0 SHL SUB SWAP2 DUP3 AND PUSH1 0x80 MSTORE AND PUSH1 0xA0 MSTORE PUSH1 0x0 DUP1 SLOAD PUSH1 0x1 PUSH1 0x1 PUSH1 0xA0 SHL SUB NOT AND CALLER OR DUP2 SSTORE PUSH1 0x1 PUSH1 0x20 MSTORE PUSH3 0x493E0 PUSH32 0xA6EEF7E35ABE7026729641147F7915573C7E97B47EFA546F5F6E3230263BCB49 SSTORE PUSH3 0x61A80 PUSH32 0xCC69885FDA6BCC1A4ACE058B4A62BF5E179EA78FD58A1CCD71C22CC9B688792F SSTORE PUSH1 0x2 SWAP1 MSTORE PUSH3 0x7A120 PUSH32 0xD9D16D34FFB15BA3A3D852F0D403E2CE1D691FB54DE27AC87CD2F993F3EC330F SSTORE PUSH2 0x122 JUMP JUMPDEST DUP1 MLOAD PUSH1 0x1 PUSH1 0x1 PUSH1 0xA0 SHL SUB DUP2 AND DUP2 EQ PUSH2 0xEA JUMPI PUSH1 0x0 DUP1 REVERT JUMPDEST SWAP2 SWAP1 POP JUMP JUMPDEST PUSH1 0x0 DUP1 PUSH1 0x40 DUP4 DUP6 SUB SLT ISZERO PUSH2 0x102 JUMPI PUSH1 0x0 DUP1 REVERT JUMPDEST PUSH2 0x10B DUP4 PUSH2 0xD3 JUMP JUMPDEST SWAP2 POP PUSH2 0x119 PUSH1 0x20 DUP5 ADD PUSH2 0xD3 JUMP JUMPDEST SWAP1 POP SWAP3 POP SWAP3 SWAP1 POP JUMP JUMPDEST PUSH1 0x80 MLOAD PUSH1 0xA0 MLOAD PUSH2 0xE3C PUSH2 0x155 PUSH1 0x0 CODECOPY PUSH1 0x0 DUP2 DUP2 PUSH2 0x167 ADD MSTORE PUSH2 0xA61 ADD MSTORE PUSH1 0x0 DUP2 DUP2 PUSH2 0x29C ADD MSTORE PUSH2 0xA93 ADD MSTORE PUSH2 0xE3C PUSH1 0x0 RETURN INVALID PUSH1 0x80 PUSH1 0x40 MSTORE CALLVALUE DUP1 ISZERO PUSH2 0x10 JUMPI PUSH1 0x0 DUP1 REVERT JUMPDEST POP PUSH1 0x4 CALLDATASIZE LT PUSH2 0xCF JUMPI PUSH1 0x0 CALLDATALOAD PUSH1 0xE0 SHR DUP1 PUSH4 0x85FB9422 GT PUSH2 0x8C JUMPI DUP1 PUSH4 0x9AFD21DE GT PUSH2 0x66 JUMPI DUP1 PUSH4 0x9AFD21DE EQ PUSH2 0x2D1 JUMPI DUP1 PUSH4 0xB426CBEB EQ PUSH2 0x2E4 JUMPI DUP1 PUSH4 0xF2FDE38B EQ PUSH2 0x2F7 JUMPI DUP1 PUSH4 0xFB19DB83 EQ PUSH2 0x30A JUMPI PUSH1 0x0 DUP1 REVERT JUMPDEST DUP1 PUSH4 0x85FB9422 EQ PUSH2 0x24D JUMPI DUP1 PUSH4 0x89A30271 EQ PUSH2 0x297 JUMPI DUP1 PUSH4 0x8DA5CB5B EQ PUSH2 0x2BE JUMPI PUSH1 0x0 DUP1 REVERT JUMPDEST DUP1 PUSH4 0x17E1AB8 EQ PUSH2 0xD4 JUMPI DUP1 PUSH4 0x4DEBB5A8 EQ PUSH2 0x117 JUMPI DUP1 PUSH4 0x5363AE9B EQ PUSH2 0x121 JUMPI DUP1 PUSH4 0x5EE2429B EQ PUSH2 0x14F JUMPI DUP1 PUSH4 0x61D027B3 EQ PUSH2 0x162 JUMPI DUP1 PUSH4 0x83C1CD8A EQ PUSH2 0x1A1 JUMPI JUMPDEST PUSH1 0x0 DUP1 REVERT JUMPDEST PUSH2 0x102 PUSH2 0xE2 CALLDATASIZE PUSH1 0x4 PUSH2 0xC50 JUMP JUMPDEST PUSH1 0x3 PUSH1 0x20 SWAP1 DUP2 MSTORE PUSH1 0x0 SWAP3 DUP4 MSTORE PUSH1 0x40 DUP1 DUP5 KECCAK256 SWAP1 SWAP2 MSTORE SWAP1 DUP3 MSTORE SWAP1 KECCAK256 SLOAD PUSH1 0xFF AND DUP2 JUMP JUMPDEST PUSH1 0x40 MLOAD SWAP1 ISZERO ISZERO DUP2 MSTORE PUSH1 0x20 ADD JUMPDEST PUSH1 0x40 MLOAD DUP1 SWAP2 SUB SWAP1 RETURN JUMPDEST PUSH2 0x11F PUSH2 0x31D JUMP JUMPDEST STOP JUMPDEST PUSH2 0x141 PUSH2 0x12F CALLDATASIZE PUSH1 0x4 PUSH2 0xC92 JUMP JUMPDEST PUSH1 0x1 PUSH1 0x20 MSTORE PUSH1 0x0 SWAP1 DUP2 MSTORE PUSH1 0x40 SWAP1 KECCAK256 SLOAD DUP2 JUMP JUMPDEST PUSH1 0x40 MLOAD SWAP1 DUP2 MSTORE PUSH1 0x20 ADD PUSH2 0x10E JUMP JUMPDEST PUSH2 0x11F PUSH2 0x15D CALLDATASIZE PUSH1 0x4 PUSH2 0xCAD JUMP JUMPDEST PUSH2 0x403 JUMP JUMPDEST PUSH2 0x189 PUSH32 0x0 DUP2 JUMP JUMPDEST PUSH1 0x40 MLOAD PUSH1 0x1 PUSH1 0x1 PUSH1 0xA0 SHL SUB SWAP1 SWAP2 AND DUP2 MSTORE PUSH1 0x20 ADD PUSH2 0x10E JUMP JUMPDEST PUSH2 0x21A PUSH2 0x1AF CALLDATASIZE PUSH1 0x4 PUSH2 0xCE0 JUMP JUMPDEST PUSH1 0x1 PUSH1 0x1 PUSH1 0xA0 SHL SUB SWAP1 DUP2 AND PUSH1 0x0 SWAP1 DUP2 MSTORE PUSH1 0x2 PUSH1 0x20 DUP2 DUP2 MSTORE PUSH1 0x40 SWAP3 DUP4 SWAP1 KECCAK256 DUP4 MLOAD PUSH1 0xA0 DUP2 ADD DUP6 MSTORE DUP2 SLOAD DUP1 DUP3 MSTORE PUSH1 0x1 DUP4 ADD SLOAD SWAP4 DUP3 ADD DUP5 SWAP1 MSTORE SWAP4 DUP3 ADD SLOAD SWAP5 DUP2 ADD DUP6 SWAP1 MSTORE PUSH1 0x3 SWAP1 SWAP2 ADD SLOAD PUSH1 0xFF DUP2 AND ISZERO ISZERO PUSH1 0x60 DUP4 ADD DUP2 SWAP1 MSTORE PUSH2 0x100 SWAP1 SWAP2 DIV SWAP1 SWAP6 AND PUSH1 0x80 SWAP1 SWAP2 ADD DUP2 SWAP1 MSTORE SWAP2 SWAP5 SWAP1 SWAP4 SWAP2 SWAP1 JUMP JUMPDEST PUSH1 0x40 DUP1 MLOAD SWAP6 DUP7 MSTORE PUSH1 0x20 DUP7 ADD SWAP5 SWAP1 SWAP5 MSTORE SWAP3 DUP5 ADD SWAP2 SWAP1 SWAP2 MSTORE ISZERO ISZERO PUSH1 0x60 DUP4 ADD MSTORE PUSH1 0x1 PUSH1 0x1 PUSH1 0xA0 SHL SUB AND PUSH1 0x80 DUP3 ADD MSTORE PUSH1 0xA0 ADD PUSH2 0x10E JUMP JUMPDEST PUSH2 0x21A PUSH2 0x25B CALLDATASIZE PUSH1 0x4 PUSH2 0xCE0 JUMP JUMPDEST PUSH1 0x2 PUSH1 0x20 DUP2 SWAP1 MSTORE PUSH1 0x0 SWAP2 DUP3 MSTORE PUSH1 0x40 SWAP1 SWAP2 KECCAK256 DUP1 SLOAD PUSH1 0x1 DUP3 ADD SLOAD SWAP3 DUP3 ADD SLOAD PUSH1 0x3 SWAP1 SWAP3 ADD SLOAD SWAP1 SWAP3 SWAP2 SWAP1 PUSH1 0xFF DUP2 AND SWAP1 PUSH2 0x100 SWAP1 DIV PUSH1 0x1 PUSH1 0x1 PUSH1 0xA0 SHL SUB AND DUP6 JUMP JUMPDEST PUSH2 0x189 PUSH32 0x0 DUP2 JUMP JUMPDEST PUSH1 0x0 SLOAD PUSH2 0x189 SWAP1 PUSH1 0x1 PUSH1 0x1 PUSH1 0xA0 SHL SUB AND DUP2 JUMP JUMPDEST PUSH2 0x102 PUSH2 0x2DF CALLDATASIZE PUSH1 0x4 PUSH2 0xCFB JUMP JUMPDEST PUSH2 0x5E5 JUMP JUMPDEST PUSH2 0x11F PUSH2 0x2F2 CALLDATASIZE PUSH1 0x4 PUSH2 0xD3E JUMP JUMPDEST PUSH2 0x70C JUMP JUMPDEST PUSH2 0x11F PUSH2 0x305 CALLDATASIZE PUSH1 0x4 PUSH2 0xCE0 JUMP JUMPDEST PUSH2 0x790 JUMP JUMPDEST PUSH2 0x102 PUSH2 0x318 CALLDATASIZE PUSH1 0x4 PUSH2 0xD68 JUMP JUMPDEST PUSH2 0x841 JUMP JUMPDEST CALLER PUSH1 0x0 SWAP1 DUP2 MSTORE PUSH1 0x2 PUSH1 0x20 MSTORE PUSH1 0x40 SWAP1 KECCAK256 PUSH1 0x3 DUP2 ADD SLOAD PUSH1 0xFF AND PUSH2 0x37D JUMPI PUSH1 0x40 MLOAD PUSH3 0x461BCD PUSH1 0xE5 SHL DUP2 MSTORE PUSH1 0x20 PUSH1 0x4 DUP3 ADD MSTORE PUSH1 0x15 PUSH1 0x24 DUP3 ADD MSTORE PUSH21 0x5065726D697373696F6E206E6F7420616374697665 PUSH1 0x58 SHL PUSH1 0x44 DUP3 ADD MSTORE PUSH1 0x64 ADD JUMPDEST PUSH1 0x40 MLOAD DUP1 SWAP2 SUB SWAP1 REVERT JUMPDEST PUSH1 0x3 DUP1 DUP3 ADD DUP1 SLOAD PUSH1 0xFF NOT SWAP1 DUP2 AND DUP1 DUP4 SSTORE CALLER PUSH1 0x0 DUP2 DUP2 MSTORE PUSH1 0x20 SWAP6 DUP7 MSTORE PUSH1 0x40 DUP1 DUP3 KECCAK256 PUSH2 0x100 SWAP5 DUP6 SWAP1 DIV PUSH1 0x1 PUSH1 0x1 PUSH1 0xA0 SHL SUB SWAP1 DUP2 AND DUP5 MSTORE SWAP8 MSTORE SWAP1 DUP2 SWAP1 KECCAK256 DUP1 SLOAD SWAP1 SWAP5 AND SWAP1 SWAP4 SSTORE SWAP3 SLOAD SWAP2 MLOAD SWAP2 DIV SWAP1 SWAP3 AND SWAP2 PUSH32 0xDDC354B2E01A1C04D0FF3F0A82ABD6226F186A7E8D03CEA079C60C6CD9600189 SWAP1 PUSH2 0x3F8 SWAP1 TIMESTAMP DUP2 MSTORE PUSH1 0x20 ADD SWAP1 JUMP JUMPDEST PUSH1 0x40 MLOAD DUP1 SWAP2 SUB SWAP1 LOG3 POP JUMP JUMPDEST PUSH1 0x1 PUSH1 0x1 PUSH1 0xA0 SHL SUB DUP4 AND PUSH2 0x459 JUMPI PUSH1 0x40 MLOAD PUSH3 0x461BCD PUSH1 0xE5 SHL DUP2 MSTORE PUSH1 0x20 PUSH1 0x4 DUP3 ADD MSTORE PUSH1 0x17 PUSH1 0x24 DUP3 ADD MSTORE PUSH32 0x496E76616C69642073657373696F6E206163636F756E74000000000000000000 PUSH1 0x44 DUP3 ADD MSTORE PUSH1 0x64 ADD PUSH2 0x374 JUMP JUMPDEST PUSH1 0x0 DUP3 GT PUSH2 0x4A2 JUMPI PUSH1 0x40 MLOAD PUSH3 0x461BCD PUSH1 0xE5 SHL DUP2 MSTORE PUSH1 0x20 PUSH1 0x4 DUP3 ADD MSTORE PUSH1 0x16 PUSH1 0x24 DUP3 ADD MSTORE PUSH22 0x125B9D985B1A59081CDC195B991A5B99C81B1A5B5A5D PUSH1 0x52 SHL PUSH1 0x44 DUP3 ADD MSTORE PUSH1 0x64 ADD PUSH2 0x374 JUMP JUMPDEST PUSH1 0x0 DUP2 GT PUSH2 0x4E5 JUMPI PUSH1 0x40 MLOAD PUSH3 0x461BCD PUSH1 0xE5 SHL DUP2 MSTORE PUSH1 0x20 PUSH1 0x4 DUP3 ADD MSTORE PUSH1 0x10 PUSH1 0x24 DUP3 ADD MSTORE PUSH16 0x24B73B30B634B210323AB930BA34B7B7 PUSH1 0x81 SHL PUSH1 0x44 DUP3 ADD MSTORE PUSH1 0x64 ADD PUSH2 0x374 JUMP JUMPDEST PUSH1 0x0 PUSH2 0x4F1 DUP3 TIMESTAMP PUSH2 0xDA8 JUMP JUMPDEST PUSH1 0x40 DUP1 MLOAD PUSH1 0xA0 DUP2 ADD DUP3 MSTORE DUP6 DUP2 MSTORE PUSH1 0x0 PUSH1 0x20 DUP1 DUP4 ADD DUP3 DUP2 MSTORE DUP4 DUP6 ADD DUP7 DUP2 MSTORE PUSH1 0x1 PUSH1 0x60 DUP1 DUP8 ADD DUP3 DUP2 MSTORE PUSH1 0x1 PUSH1 0x1 PUSH1 0xA0 SHL SUB DUP15 DUP2 AND PUSH1 0x80 DUP11 ADD DUP2 DUP2 MSTORE CALLER DUP1 DUP12 MSTORE PUSH1 0x2 DUP1 DUP12 MSTORE DUP14 DUP13 KECCAK256 SWAP13 MLOAD DUP14 SSTORE SWAP9 MLOAD DUP13 DUP9 ADD SSTORE SWAP7 MLOAD SWAP8 DUP12 ADD SWAP8 SWAP1 SWAP8 SSTORE SWAP2 MLOAD PUSH1 0x3 SWAP10 DUP11 ADD DUP1 SLOAD SWAP8 MLOAD PUSH1 0x1 PUSH1 0x1 PUSH1 0xA8 SHL SUB NOT SWAP1 SWAP9 AND SWAP2 ISZERO ISZERO PUSH2 0x100 PUSH1 0x1 PUSH1 0xA8 SHL SUB NOT AND SWAP2 SWAP1 SWAP2 OR PUSH2 0x100 SWAP8 SWAP1 SWAP3 AND SWAP7 SWAP1 SWAP7 MUL OR SWAP1 SWAP5 SSTORE SWAP6 DUP5 MSTORE DUP7 DUP6 KECCAK256 DUP4 DUP7 MSTORE DUP5 MSTORE SWAP4 DUP7 SWAP1 KECCAK256 DUP1 SLOAD PUSH1 0xFF NOT AND SWAP1 SWAP5 OR SWAP1 SWAP4 SSTORE DUP5 MLOAD DUP10 DUP2 MSTORE SWAP2 DUP3 ADD DUP7 SWAP1 MSTORE TIMESTAMP SWAP5 DUP3 ADD SWAP5 SWAP1 SWAP5 MSTORE SWAP4 SWAP5 POP SWAP2 SWAP3 PUSH32 0xBC6AE1517C84BA3D8BC9A06F909EA29D8898C1B2EE9A06BD2CC39967DCBFB03C SWAP2 ADD PUSH1 0x40 MLOAD DUP1 SWAP2 SUB SWAP1 LOG3 POP POP POP POP JUMP JUMPDEST PUSH1 0x1 PUSH1 0x1 PUSH1 0xA0 SHL SUB DUP1 DUP5 AND PUSH1 0x0 SWAP1 DUP2 MSTORE PUSH1 0x2 PUSH1 0x20 DUP2 DUP2 MSTORE PUSH1 0x40 DUP1 DUP5 KECCAK256 DUP2 MLOAD PUSH1 0xA0 DUP2 ADD DUP4 MSTORE DUP2 SLOAD DUP2 MSTORE PUSH1 0x1 DUP3 ADD SLOAD SWAP4 DUP2 ADD SWAP4 SWAP1 SWAP4 MSTORE SWAP3 DUP4 ADD SLOAD SWAP1 DUP3 ADD MSTORE PUSH1 0x3 SWAP1 SWAP2 ADD SLOAD PUSH1 0xFF DUP2 AND ISZERO ISZERO PUSH1 0x60 DUP4 ADD DUP2 SWAP1 MSTORE PUSH2 0x100 SWAP1 SWAP2 DIV SWAP1 SWAP4 AND PUSH1 0x80 DUP3 ADD MSTORE SWAP1 SWAP2 PUSH2 0x652 JUMPI PUSH1 0x0 SWAP2 POP POP PUSH2 0x705 JUMP JUMPDEST TIMESTAMP DUP2 PUSH1 0x40 ADD MLOAD GT PUSH2 0x667 JUMPI PUSH1 0x0 SWAP2 POP POP PUSH2 0x705 JUMP JUMPDEST PUSH1 0x1 PUSH1 0x1 PUSH1 0xA0 SHL SUB DUP1 DUP7 AND PUSH1 0x0 SWAP1 DUP2 MSTORE PUSH1 0x3 PUSH1 0x20 SWAP1 DUP2 MSTORE PUSH1 0x40 DUP1 DUP4 KECCAK256 SWAP4 DUP9 AND DUP4 MSTORE SWAP3 SWAP1 MSTORE KECCAK256 SLOAD PUSH1 0xFF AND PUSH2 0x69E JUMPI PUSH1 0x0 SWAP2 POP POP PUSH2 0x705 JUMP JUMPDEST PUSH1 0x0 PUSH1 0x1 PUSH1 0x0 DUP6 PUSH1 0x2 DUP2 GT ISZERO PUSH2 0x6B6 JUMPI PUSH2 0x6B6 PUSH2 0xDBB JUMP JUMPDEST PUSH1 0x2 DUP2 GT ISZERO PUSH2 0x6C7 JUMPI PUSH2 0x6C7 PUSH2 0xDBB JUMP JUMPDEST DUP2 MSTORE PUSH1 0x20 ADD SWAP1 DUP2 MSTORE PUSH1 0x20 ADD PUSH1 0x0 KECCAK256 SLOAD SWAP1 POP DUP2 PUSH1 0x0 ADD MLOAD DUP2 DUP4 PUSH1 0x20 ADD MLOAD PUSH2 0x6ED SWAP2 SWAP1 PUSH2 0xDA8 JUMP JUMPDEST GT ISZERO PUSH2 0x6FE JUMPI PUSH1 0x0 SWAP3 POP POP POP PUSH2 0x705 JUMP JUMPDEST PUSH1 0x1 SWAP3 POP POP POP JUMPDEST SWAP4 SWAP3 POP POP POP JUMP JUMPDEST PUSH1 0x0 SLOAD PUSH1 0x1 PUSH1 0x1 PUSH1 0xA0 SHL SUB AND CALLER EQ PUSH2 0x753 JUMPI PUSH1 0x40 MLOAD PUSH3 0x461BCD PUSH1 0xE5 SHL DUP2 MSTORE PUSH1 0x20 PUSH1 0x4 DUP3 ADD MSTORE PUSH1 0xA PUSH1 0x24 DUP3 ADD MSTORE PUSH10 0x27B7363C9037BBB732B9 PUSH1 0xB1 SHL PUSH1 0x44 DUP3 ADD MSTORE PUSH1 0x64 ADD PUSH2 0x374 JUMP JUMPDEST DUP1 PUSH1 0x1 PUSH1 0x0 DUP5 PUSH1 0x2 DUP2 GT ISZERO PUSH2 0x76A JUMPI PUSH2 0x76A PUSH2 0xDBB JUMP JUMPDEST PUSH1 0x2 DUP2 GT ISZERO PUSH2 0x77B JUMPI PUSH2 0x77B PUSH2 0xDBB JUMP JUMPDEST DUP2 MSTORE PUSH1 0x20 DUP2 ADD SWAP2 SWAP1 SWAP2 MSTORE PUSH1 0x40 ADD PUSH1 0x0 KECCAK256 SSTORE POP POP JUMP JUMPDEST PUSH1 0x0 SLOAD PUSH1 0x1 PUSH1 0x1 PUSH1 0xA0 SHL SUB AND CALLER EQ PUSH2 0x7D7 JUMPI PUSH1 0x40 MLOAD PUSH3 0x461BCD PUSH1 0xE5 SHL DUP2 MSTORE PUSH1 0x20 PUSH1 0x4 DUP3 ADD MSTORE PUSH1 0xA PUSH1 0x24 DUP3 ADD MSTORE PUSH10 0x27B7363C9037BBB732B9 PUSH1 0xB1 SHL PUSH1 0x44 DUP3 ADD MSTORE PUSH1 0x64 ADD PUSH2 0x374 JUMP JUMPDEST PUSH1 0x1 PUSH1 0x1 PUSH1 0xA0 SHL SUB DUP2 AND PUSH2 0x81F JUMPI PUSH1 0x40 MLOAD PUSH3 0x461BCD PUSH1 0xE5 SHL DUP2 MSTORE PUSH1 0x20 PUSH1 0x4 DUP3 ADD MSTORE PUSH1 0xF PUSH1 0x24 DUP3 ADD MSTORE PUSH15 0x496E76616C69642061646472657373 PUSH1 0x88 SHL PUSH1 0x44 DUP3 ADD MSTORE PUSH1 0x64 ADD PUSH2 0x374 JUMP JUMPDEST PUSH1 0x0 DUP1 SLOAD PUSH1 0x1 PUSH1 0x1 PUSH1 0xA0 SHL SUB NOT AND PUSH1 0x1 PUSH1 0x1 PUSH1 0xA0 SHL SUB SWAP3 SWAP1 SWAP3 AND SWAP2 SWAP1 SWAP2 OR SWAP1 SSTORE JUMP JUMPDEST PUSH1 0x1 PUSH1 0x1 PUSH1 0xA0 SHL SUB DUP3 AND PUSH1 0x0 SWAP1 DUP2 MSTORE PUSH1 0x2 PUSH1 0x20 MSTORE PUSH1 0x40 DUP2 KECCAK256 PUSH1 0x3 DUP2 ADD SLOAD PUSH1 0xFF AND PUSH2 0x8A5 JUMPI PUSH1 0x40 MLOAD PUSH3 0x461BCD PUSH1 0xE5 SHL DUP2 MSTORE PUSH1 0x20 PUSH1 0x4 DUP3 ADD MSTORE PUSH1 0x15 PUSH1 0x24 DUP3 ADD MSTORE PUSH21 0x5065726D697373696F6E206E6F7420616374697665 PUSH1 0x58 SHL PUSH1 0x44 DUP3 ADD MSTORE PUSH1 0x64 ADD PUSH2 0x374 JUMP JUMPDEST TIMESTAMP DUP2 PUSH1 0x2 ADD SLOAD GT PUSH2 0x8ED JUMPI PUSH1 0x40 MLOAD PUSH3 0x461BCD PUSH1 0xE5 SHL DUP2 MSTORE PUSH1 0x20 PUSH1 0x4 DUP3 ADD MSTORE PUSH1 0x12 PUSH1 0x24 DUP3 ADD MSTORE PUSH18 0x14195C9B5A5CDCDA5BDB88195E1C1A5C9959 PUSH1 0x72 SHL PUSH1 0x44 DUP3 ADD MSTORE PUSH1 0x64 ADD PUSH2 0x374 JUMP JUMPDEST PUSH1 0x1 PUSH1 0x1 PUSH1 0xA0 SHL SUB DUP5 AND PUSH1 0x0 SWAP1 DUP2 MSTORE PUSH1 0x3 PUSH1 0x20 SWAP1 DUP2 MSTORE PUSH1 0x40 DUP1 DUP4 KECCAK256 CALLER DUP5 MSTORE SWAP1 SWAP2 MSTORE SWAP1 KECCAK256 SLOAD PUSH1 0xFF AND PUSH2 0x959 JUMPI PUSH1 0x40 MLOAD PUSH3 0x461BCD PUSH1 0xE5 SHL DUP2 MSTORE PUSH1 0x20 PUSH1 0x4 DUP3 ADD MSTORE PUSH1 0x16 PUSH1 0x24 DUP3 ADD MSTORE PUSH22 0x14D95CDCDA5BDB881B9BDD08185D5D1A1BDC9A5E9959 PUSH1 0x52 SHL PUSH1 0x44 DUP3 ADD MSTORE PUSH1 0x64 ADD PUSH2 0x374 JUMP JUMPDEST PUSH1 0x0 PUSH1 0x1 PUSH1 0x0 DUP6 PUSH1 0x2 DUP2 GT ISZERO PUSH2 0x971 JUMPI PUSH2 0x971 PUSH2 0xDBB JUMP JUMPDEST PUSH1 0x2 DUP2 GT ISZERO PUSH2 0x982 JUMPI PUSH2 0x982 PUSH2 0xDBB JUMP JUMPDEST DUP2 MSTORE PUSH1 0x20 ADD SWAP1 DUP2 MSTORE PUSH1 0x20 ADD PUSH1 0x0 KECCAK256 SLOAD SWAP1 POP PUSH1 0x0 DUP2 GT PUSH2 0x9D5 JUMPI PUSH1 0x40 MLOAD PUSH3 0x461BCD PUSH1 0xE5 SHL DUP2 MSTORE PUSH1 0x20 PUSH1 0x4 DUP3 ADD MSTORE PUSH1 0xF PUSH1 0x24 DUP3 ADD MSTORE PUSH15 0x496E76616C69642073657276696365 PUSH1 0x88 SHL PUSH1 0x44 DUP3 ADD MSTORE PUSH1 0x64 ADD PUSH2 0x374 JUMP JUMPDEST PUSH1 0x0 DUP2 DUP4 PUSH1 0x1 ADD SLOAD PUSH2 0x9E7 SWAP2 SWAP1 PUSH2 0xDA8 JUMP JUMPDEST DUP4 SLOAD SWAP1 SWAP2 POP DUP2 GT ISZERO PUSH2 0xA3B JUMPI PUSH1 0x40 MLOAD PUSH3 0x461BCD PUSH1 0xE5 SHL DUP2 MSTORE PUSH1 0x20 PUSH1 0x4 DUP3 ADD MSTORE PUSH1 0x17 PUSH1 0x24 DUP3 ADD MSTORE PUSH32 0x5370656E64696E67206C696D6974206578636565646564000000000000000000 PUSH1 0x44 DUP3 ADD MSTORE PUSH1 0x64 ADD PUSH2 0x374 JUMP JUMPDEST PUSH1 0x1 DUP4 ADD DUP2 SWAP1 SSTORE PUSH1 0x40 MLOAD PUSH4 0x23B872DD PUSH1 0xE0 SHL DUP2 MSTORE PUSH1 0x1 PUSH1 0x1 PUSH1 0xA0 SHL SUB DUP8 DUP2 AND PUSH1 0x4 DUP4 ADD MSTORE PUSH32 0x0 DUP2 AND PUSH1 0x24 DUP4 ADD MSTORE PUSH1 0x44 DUP3 ADD DUP5 SWAP1 MSTORE PUSH1 0x0 SWAP2 PUSH32 0x0 SWAP1 SWAP2 AND SWAP1 PUSH4 0x23B872DD SWAP1 PUSH1 0x64 ADD PUSH1 0x20 PUSH1 0x40 MLOAD DUP1 DUP4 SUB DUP2 PUSH1 0x0 DUP8 GAS CALL ISZERO DUP1 ISZERO PUSH2 0xADE JUMPI RETURNDATASIZE PUSH1 0x0 DUP1 RETURNDATACOPY RETURNDATASIZE PUSH1 0x0 REVERT JUMPDEST POP POP POP POP PUSH1 0x40 MLOAD RETURNDATASIZE PUSH1 0x1F NOT PUSH1 0x1F DUP3 ADD AND DUP3 ADD DUP1 PUSH1 0x40 MSTORE POP DUP2 ADD SWAP1 PUSH2 0xB02 SWAP2 SWAP1 PUSH2 0xDD1 JUMP JUMPDEST SWAP1 POP DUP1 PUSH2 0xB48 JUMPI PUSH1 0x40 MLOAD PUSH3 0x461BCD PUSH1 0xE5 SHL DUP2 MSTORE PUSH1 0x20 PUSH1 0x4 DUP3 ADD MSTORE PUSH1 0x14 PUSH1 0x24 DUP3 ADD MSTORE PUSH20 0x1554D110C81D1C985B9CD9995C8819985A5B1959 PUSH1 0x62 SHL PUSH1 0x44 DUP3 ADD MSTORE PUSH1 0x64 ADD PUSH2 0x374 JUMP JUMPDEST DUP4 SLOAD PUSH1 0x0 SWAP1 PUSH2 0xB58 SWAP1 DUP5 SWAP1 PUSH2 0xDF3 JUMP JUMPDEST SWAP1 POP DUP7 PUSH1 0x2 DUP2 GT ISZERO PUSH2 0xB6C JUMPI PUSH2 0xB6C PUSH2 0xDBB JUMP JUMPDEST PUSH1 0xFF AND CALLER PUSH1 0x1 PUSH1 0x1 PUSH1 0xA0 SHL SUB AND DUP10 PUSH1 0x1 PUSH1 0x1 PUSH1 0xA0 SHL SUB AND PUSH32 0x6026D0E43A8D5A82BBA8851052B03A4FA95E225E0BD1B433648DF946617759E DUP8 DUP6 TIMESTAMP PUSH1 0x40 MLOAD PUSH2 0xBC7 SWAP4 SWAP3 SWAP2 SWAP1 SWAP3 DUP4 MSTORE PUSH1 0x20 DUP4 ADD SWAP2 SWAP1 SWAP2 MSTORE PUSH1 0x40 DUP3 ADD MSTORE PUSH1 0x60 ADD SWAP1 JUMP JUMPDEST PUSH1 0x40 MLOAD DUP1 SWAP2 SUB SWAP1 LOG4 DUP1 PUSH1 0x0 SUB PUSH2 0xC24 JUMPI PUSH1 0x3 DUP6 ADD DUP1 SLOAD PUSH1 0xFF NOT AND SWAP1 SSTORE PUSH1 0x40 MLOAD TIMESTAMP DUP2 MSTORE CALLER SWAP1 PUSH1 0x1 PUSH1 0x1 PUSH1 0xA0 SHL SUB DUP11 AND SWAP1 PUSH32 0xDDC354B2E01A1C04D0FF3F0A82ABD6226F186A7E8D03CEA079C60C6CD9600189 SWAP1 PUSH1 0x20 ADD PUSH1 0x40 MLOAD DUP1 SWAP2 SUB SWAP1 LOG3 JUMPDEST PUSH1 0x1 SWAP6 POP POP POP POP POP POP JUMPDEST SWAP3 SWAP2 POP POP JUMP JUMPDEST DUP1 CALLDATALOAD PUSH1 0x1 PUSH1 0x1 PUSH1 0xA0 SHL SUB DUP2 AND DUP2 EQ PUSH2 0xC4B JUMPI PUSH1 0x0 DUP1 REVERT JUMPDEST SWAP2 SWAP1 POP JUMP JUMPDEST PUSH1 0x0 DUP1 PUSH1 0x40 DUP4 DUP6 SUB SLT ISZERO PUSH2 0xC63 JUMPI PUSH1 0x0 DUP1 REVERT JUMPDEST PUSH2 0xC6C DUP4 PUSH2 0xC34 JUMP JUMPDEST SWAP2 POP PUSH2 0xC7A PUSH1 0x20 DUP5 ADD PUSH2 0xC34 JUMP JUMPDEST SWAP1 POP SWAP3 POP SWAP3 SWAP1 POP JUMP JUMPDEST DUP1 CALLDATALOAD PUSH1 0x3 DUP2 LT PUSH2 0xC4B JUMPI PUSH1 0x0 DUP1 REVERT JUMPDEST PUSH1 0x0 PUSH1 0x20 DUP3 DUP5 SUB SLT ISZERO PUSH2 0xCA4 JUMPI PUSH1 0x0 DUP1 REVERT JUMPDEST PUSH2 0x705 DUP3 PUSH2 0xC83 JUMP JUMPDEST PUSH1 0x0 DUP1 PUSH1 0x0 PUSH1 0x60 DUP5 DUP7 SUB SLT ISZERO PUSH2 0xCC2 JUMPI PUSH1 0x0 DUP1 REVERT JUMPDEST PUSH2 0xCCB DUP5 PUSH2 0xC34 JUMP JUMPDEST SWAP6 PUSH1 0x20 DUP6 ADD CALLDATALOAD SWAP6 POP PUSH1 0x40 SWAP1 SWAP5 ADD CALLDATALOAD SWAP4 SWAP3 POP POP POP JUMP JUMPDEST PUSH1 0x0 PUSH1 0x20 DUP3 DUP5 SUB SLT ISZERO PUSH2 0xCF2 JUMPI PUSH1 0x0 DUP1 REVERT JUMPDEST PUSH2 0x705 DUP3 PUSH2 0xC34 JUMP JUMPDEST PUSH1 0x0 DUP1 PUSH1 0x0 PUSH1 0x60 DUP5 DUP7 SUB SLT ISZERO PUSH2 0xD10 JUMPI PUSH1 0x0 DUP1 REVERT JUMPDEST PUSH2 0xD19 DUP5 PUSH2 0xC34 JUMP JUMPDEST SWAP3 POP PUSH2 0xD27 PUSH1 0x20 DUP6 ADD PUSH2 0xC34 JUMP JUMPDEST SWAP2 POP PUSH2 0xD35 PUSH1 0x40 DUP6 ADD PUSH2 0xC83 JUMP JUMPDEST SWAP1 POP SWAP3 POP SWAP3 POP SWAP3 JUMP JUMPDEST PUSH1 0x0 DUP1 PUSH1 0x40 DUP4 DUP6 SUB SLT ISZERO PUSH2 0xD51 JUMPI PUSH1 0x0 DUP1 REVERT JUMPDEST PUSH2 0xD5A DUP4 PUSH2 0xC83 JUMP JUMPDEST SWAP5 PUSH1 0x20 SWAP4 SWAP1 SWAP4 ADD CALLDATALOAD SWAP4 POP POP POP JUMP JUMPDEST PUSH1 0x0 DUP1 PUSH1 0x40 DUP4 DUP6 SUB SLT ISZERO PUSH2 0xD7B JUMPI PUSH1 0x0 DUP1 REVERT JUMPDEST PUSH2 0xD84 DUP4 PUSH2 0xC34 JUMP JUMPDEST SWAP2 POP PUSH2 0xC7A PUSH1 0x20 DUP5 ADD PUSH2 0xC83 JUMP JUMPDEST PUSH4 0x4E487B71 PUSH1 0xE0 SHL PUSH1 0x0 MSTORE PUSH1 0x11 PUSH1 0x4 MSTORE PUSH1 0x24 PUSH1 0x0 REVERT JUMPDEST DUP1 DUP3 ADD DUP1 DUP3 GT ISZERO PUSH2 0xC2E JUMPI PUSH2 0xC2E PUSH2 0xD92 JUMP JUMPDEST PUSH4 0x4E487B71 PUSH1 0xE0 SHL PUSH1 0x0 MSTORE PUSH1 0x21 PUSH1 0x4 MSTORE PUSH1 0x24 PUSH1 0x0 REVERT JUMPDEST PUSH1 0x0 PUSH1 0x20 DUP3 DUP5 SUB SLT ISZERO PUSH2 0xDE3 JUMPI PUSH1 0x0 DUP1 REVERT JUMPDEST DUP2 MLOAD DUP1 ISZERO ISZERO DUP2 EQ PUSH2 0x705 JUMPI PUSH1 0x0 DUP1 REVERT JUMPDEST DUP2 DUP2 SUB DUP2 DUP2 GT ISZERO PUSH2 0xC2E JUMPI PUSH2 0xC2E PUSH2 0xD92 JUMP INVALID LOG2 PUSH5 0x6970667358 0x22 SLT KECCAK256 PUSH19 0xC686DDABCE63DC0AE8BADFEA6880C686F56F10 0x1E 0xC2 SWAP5 0x1F PUSH0 0xD5 DUP14 PUSH31 0x1000B84F64736F6C6343000817003300000000000000000000000000000000 "},"methodIdentifiers":{"USDC()":"89a30271","authorizedSessions(address,address)":"017e1ab8","canExecuteService(address,address,uint8)":"9afd21de","executeService(address,uint8)":"fb19db83","getPermission(address)":"83c1cd8a","grantPermission(address,uint256,uint256)":"5ee2429b","owner()":"8da5cb5b","revokePermission()":"4debb5a8","servicePrices(uint8)":"5363ae9b","transferOwnership(address)":"f2fde38b","treasury()":"61d027b3","updateServicePrice(uint8,uint256)":"b426cbeb","userPermissions(address)":"85fb9422"}}}}}