{"contracts/PermiPayBilling.sol":{"PermiPayBilling":{"abi":[{"inputs":[{"internalType":"address","name":"_usdc","type":"address"},{"internalType":"address","name":"_treasury","type":"address"}],"stateMutability":"nonpayable","type":"constructor"},{"anonymous":false,"inputs":[{"indexed":true,"internalType":"address","name":"user","type":"address"},{"indexed":false,"internalType":"uint256","name":"spendingLimit","type":"uint256"},{"indexed":false,"internalType":"uint256","name":"expiresAt","type":"uint256"},{"indexed":false,"internalType":"uint256","name":"timestamp","type":"uint256"}],"name":"PermissionGranted","type":"event"},{"anonymous":false,"inputs":[{"indexed":true,"internalType":"address","name":"user","type":"address"},{"indexed":false,"internalType":"uint256","name":"timestamp","type":"uint256"}],"name":"PermissionRevoked","type":"event"},{"anonymous":false,"inputs":[{"indexed":true,"internalType":"address","name":"user","type":"address"},{"indexed":true,"internalType":"enum PermiPayBilling.ServiceType","name":"serviceType","type":"uint8"},{"indexed":false,"internalType":"uint256","name":"cost","type":"uint256"},{"indexed":false,"internalType":"uint256","name":"remainingBudget","type":"uint256"},{"indexed":false,"internalType":"uint256","name":"timestamp","type":"uint256"}],"name":"ServiceExecuted","type":"event"},{"inputs":[],"name":"USDC","outputs":[{"internalType":"contract IERC20","name":"","type":"address"}],"stateMutability":"view","type":"function"},{"inputs":[{"internalType":"address","name":"user","type":"address"},{"internalType":"enum PermiPayBilling.ServiceType","name":"serviceType","type":"uint8"}],"name":"canExecuteService","outputs":[{"internalType":"bool","name":"","type":"bool"}],"stateMutability":"view","type":"function"},{"inputs":[{"internalType":"address","name":"user","type":"address"},{"internalType":"enum PermiPayBilling.ServiceType","name":"serviceType","type":"uint8"}],"name":"executeService","outputs":[{"internalType":"bool","name":"","type":"bool"}],"stateMutability":"nonpayable","type":"function"},{"inputs":[{"internalType":"address","name":"user","type":"address"}],"name":"getPermissionStatus","outputs":[{"internalType":"uint256","name":"spendingLimit","type":"uint256"},{"internalType":"uint256","name":"spentAmount","type":"uint256"},{"internalType":"uint256","name":"remainingBudget","type":"uint256"},{"internalType":"uint256","name":"expiresAt","type":"uint256"},{"internalType":"bool","name":"isActive","type":"bool"}],"stateMutability":"view","type":"function"},{"inputs":[{"internalType":"uint256","name":"spendingLimit","type":"uint256"},{"internalType":"uint256","name":"duration","type":"uint256"}],"name":"grantPermission","outputs":[],"stateMutability":"nonpayable","type":"function"},{"inputs":[],"name":"revokePermission","outputs":[],"stateMutability":"nonpayable","type":"function"},{"inputs":[{"internalType":"enum PermiPayBilling.ServiceType","name":"","type":"uint8"}],"name":"servicePrices","outputs":[{"internalType":"uint256","name":"","type":"uint256"}],"stateMutability":"view","type":"function"},{"inputs":[],"name":"treasury","outputs":[{"internalType":"address","name":"","type":"address"}],"stateMutability":"view","type":"function"},{"inputs":[{"internalType":"address","name":"","type":"address"}],"name":"userPermissions","outputs":[{"internalType":"uint256","name":"spendingLimit","type":"uint256"},{"internalType":"uint256","name":"spentAmount","type":"uint256"},{"internalType":"uint256","name":"expiresAt","type":"uint256"},{"internalType":"bool","name":"isActive","type":"bool"}],"stateMutability":"view","type":"function"}],"evm":{"bytecode":{"linkReferences":{},"object":"60c060405234801561001057600080fd5b50604051610bfc380380610bfc83398101604081905261002f916100df565b6001600160a01b039182166080521660a05260006020819052620493e07fad3228b676f7d3cd4284a5443f17f1962b36e491b30a40b2405849e597ba5fb55562061a807fada5013122d395ba3c54772283fb069b10426056ef8ca54750cb9bb552a59e7d55600290526207a1207fabbb5caa7dda850e60932de0934eb1f9d0f59695050f761dc64e443e5030a56955610112565b80516001600160a01b03811681146100da57600080fd5b919050565b600080604083850312156100f257600080fd5b6100fb836100c3565b9150610109602084016100c3565b90509250929050565b60805160a051610ab061014c6000396000818161011701526107ba0152600081816101b10152818161041301526107e90152610ab06000f3fe608060405234801561001057600080fd5b50600436106100935760003560e01c806385fb94221161006657806385fb94221461015157806389a30271146101ac5780639e2a7bc1146101d3578063d0a605ad146101e6578063fb19db831461020957600080fd5b806343213837146100985780634debb5a8146100da5780635363ae9b146100e457806361d027b314610112575b600080fd5b6100ab6100a636600461094c565b61021c565b6040805195865260208601949094529284019190915260608301521515608082015260a0015b60405180910390f35b6100e26102a8565b005b6101046100f236600461097d565b60006020819052908152604090205481565b6040519081526020016100d1565b6101397f000000000000000000000000000000000000000000000000000000000000000081565b6040516001600160a01b0390911681526020016100d1565b61018a61015f36600461094c565b6001602081905260009182526040909120805491810154600282015460039092015490919060ff1684565b60408051948552602085019390935291830152151560608201526080016100d1565b6101397f000000000000000000000000000000000000000000000000000000000000000081565b6100e26101e1366004610998565b61035c565b6101f96101f43660046109ba565b610591565b60405190151581526020016100d1565b6101f96102173660046109ba565b610654565b6001600160a01b038116600090815260016020818152604080842081516080810183528154808252948201549381018490526002820154928101929092526003015460ff16151560608201528392839283928392909161027c8183610a03565b8360400151846060015180156102955750846040015142105b939b929a50909850965090945092505050565b3360009081526001602052604090206003015460ff166103065760405162461bcd60e51b815260206004820152601460248201527327379030b1ba34bb32903832b936b4b9b9b4b7b760611b60448201526064015b60405180910390fd5b3360008181526001602052604090819020600301805460ff19169055517fbd20e616115b933d187c2929d56282e841784672f376eeb58eb7a4f6da3aa524906103529042815260200190565b60405180910390a2565b600082116103ac5760405162461bcd60e51b815260206004820152601f60248201527f5370656e64696e67206c696d6974206d75737420626520706f7369746976650060448201526064016102fd565b600081116103fc5760405162461bcd60e51b815260206004820152601960248201527f4475726174696f6e206d75737420626520706f7369746976650000000000000060448201526064016102fd565b6040516370a0823160e01b815233600482015282907f00000000000000000000000000000000000000000000000000000000000000006001600160a01b0316906370a0823190602401602060405180830381865afa158015610462573d6000803e3d6000fd5b505050506040513d601f19601f820116820180604052508101906104869190610a16565b10156104d45760405162461bcd60e51b815260206004820152601960248201527f496e73756666696369656e7420555344432062616c616e63650000000000000060448201526064016102fd565b60408051608081018252838152600060208201529081016104f58342610a2f565b8152600160209182018190523360008181528284526040908190208551815593850151928401929092559083015160028301556060909201516003909101805460ff19169115159190911790557f96587ab88ed3ebff489cfa48cc780eaa8e16b96c7f1511fda778c7470eb792468361056e8442610a2f565b604080519283526020830191909152429082015260600160405180910390a25050565b6001600160a01b038216600090815260016020818152604080842081516080810183528154815293810154928401929092526002820154908301526003015460ff161580156060830152806105ea575080604001514210155b156105f957600091505061064e565b600080600085600281111561061057610610610a42565b600281111561062157610621610a42565b815260200190815260200160002054905081600001518183602001516106479190610a2f565b1115925050505b92915050565b6001600160a01b0382166000908152600160205260408120600381015460ff166106b75760405162461bcd60e51b815260206004820152601460248201527327379030b1ba34bb32903832b936b4b9b9b4b7b760611b60448201526064016102fd565b806002015442106106ff5760405162461bcd60e51b815260206004820152601260248201527114195c9b5a5cdcda5bdb88195e1c1a5c995960721b60448201526064016102fd565b600080600085600281111561071657610716610a42565b600281111561072757610727610a42565b8152602001908152602001600020549050816000015481836001015461074d9190610a2f565b111561079b5760405162461bcd60e51b815260206004820152601e60248201527f496e73756666696369656e74207065726d697373696f6e20627564676574000060448201526064016102fd565b6040516323b872dd60e01b81526001600160a01b0386811660048301527f000000000000000000000000000000000000000000000000000000000000000081166024830152604482018390527f000000000000000000000000000000000000000000000000000000000000000016906323b872dd906064016020604051808303816000875af1158015610832573d6000803e3d6000fd5b505050506040513d601f19601f820116820180604052508101906108569190610a58565b6108995760405162461bcd60e51b81526020600482015260146024820152731554d110c81d1c985b9cd9995c8819985a5b195960621b60448201526064016102fd565b808260010160008282546108ad9190610a2f565b9091555050600182015482546000916108c591610a03565b90508460028111156108d9576108d9610a42565b6040805184815260208101849052428183015290516001600160a01b038916917f6307847d523c4f1f95b83663c4d3df4f4681a55d9ce8dc188b4372863ebe7fc1919081900360600190a350600195945050505050565b80356001600160a01b038116811461094757600080fd5b919050565b60006020828403121561095e57600080fd5b61096782610930565b9392505050565b80356003811061094757600080fd5b60006020828403121561098f57600080fd5b6109678261096e565b600080604083850312156109ab57600080fd5b50508035926020909101359150565b600080604083850312156109cd57600080fd5b6109d683610930565b91506109e46020840161096e565b90509250929050565b634e487b7160e01b600052601160045260246000fd5b8181038181111561064e5761064e6109ed565b600060208284031215610a2857600080fd5b5051919050565b8082018082111561064e5761064e6109ed565b634e487b7160e01b600052602160045260246000fd5b600060208284031215610a6a57600080fd5b8151801515811461096757600080fdfea26469706673582212203ba8df384fa12e8546f927ada0b473a5834c09c81a5bcae83e9d448a0a2fb46564736f6c63430008170033","opcodes":"PUSH1 0xC0 PUSH1 0x40 MSTORE CALLVALUE DUP1 ISZERO PUSH2 0x10 JUMPI PUSH1 0x0 DUP1 REVERT JUMPDEST POP PUSH1 0x40 MLOAD PUSH2 0xBFC CODESIZE SUB DUP1 PUSH2 0xBFC DUP4 CODECOPY DUP2 ADD PUSH1 0x40 DUP2 SWAP1 MSTORE PUSH2 0x2F SWAP2 PUSH2 0xDF JUMP JUMPDEST PUSH1 0x1 PUSH1 0x1 PUSH1 0xA0 SHL SUB SWAP2 DUP3 AND PUSH1 0x80 MSTORE AND PUSH1 0xA0 MSTORE PUSH1 0x0 PUSH1 0x20 DUP2 SWAP1 MSTORE PUSH3 0x493E0 PUSH32 0xAD3228B676F7D3CD4284A5443F17F1962B36E491B30A40B2405849E597BA5FB5 SSTORE PUSH3 0x61A80 PUSH32 0xADA5013122D395BA3C54772283FB069B10426056EF8CA54750CB9BB552A59E7D SSTORE PUSH1 0x2 SWAP1 MSTORE PUSH3 0x7A120 PUSH32 0xABBB5CAA7DDA850E60932DE0934EB1F9D0F59695050F761DC64E443E5030A569 SSTORE PUSH2 0x112 JUMP JUMPDEST DUP1 MLOAD PUSH1 0x1 PUSH1 0x1 PUSH1 0xA0 SHL SUB DUP2 AND DUP2 EQ PUSH2 0xDA JUMPI PUSH1 0x0 DUP1 REVERT JUMPDEST SWAP2 SWAP1 POP JUMP JUMPDEST PUSH1 0x0 DUP1 PUSH1 0x40 DUP4 DUP6 SUB SLT ISZERO PUSH2 0xF2 JUMPI PUSH1 0x0 DUP1 REVERT JUMPDEST PUSH2 0xFB DUP4 PUSH2 0xC3 JUMP JUMPDEST SWAP2 POP PUSH2 0x109 PUSH1 0x20 DUP5 ADD PUSH2 0xC3 JUMP JUMPDEST SWAP1 POP SWAP3 POP SWAP3 SWAP1 POP JUMP JUMPDEST PUSH1 0x80 MLOAD PUSH1 0xA0 MLOAD PUSH2 0xAB0 PUSH2 0x14C PUSH1 0x0 CODECOPY PUSH1 0x0 DUP2 DUP2 PUSH2 0x117 ADD MSTORE PUSH2 0x7BA ADD MSTORE PUSH1 0x0 DUP2 DUP2 PUSH2 0x1B1 ADD MSTORE DUP2 DUP2 PUSH2 0x413 ADD MSTORE PUSH2 0x7E9 ADD MSTORE PUSH2 0xAB0 PUSH1 0x0 RETURN INVALID PUSH1 0x80 PUSH1 0x40 MSTORE CALLVALUE DUP1 ISZERO PUSH2 0x10 JUMPI PUSH1 0x0 DUP1 REVERT JUMPDEST POP PUSH1 0x4 CALLDATASIZE LT PUSH2 0x93 JUMPI PUSH1 0x0 CALLDATALOAD PUSH1 0xE0 SHR DUP1 PUSH4 0x85FB9422 GT PUSH2 0x66 JUMPI DUP1 PUSH4 0x85FB9422 EQ PUSH2 0x151 JUMPI DUP1 PUSH4 0x89A30271 EQ PUSH2 0x1AC JUMPI DUP1 PUSH4 0x9E2A7BC1 EQ PUSH2 0x1D3 JUMPI DUP1 PUSH4 0xD0A605AD EQ PUSH2 0x1E6 JUMPI DUP1 PUSH4 0xFB19DB83 EQ PUSH2 0x209 JUMPI PUSH1 0x0 DUP1 REVERT JUMPDEST DUP1 PUSH4 0x43213837 EQ PUSH2 0x98 JUMPI DUP1 PUSH4 0x4DEBB5A8 EQ PUSH2 0xDA JUMPI DUP1 PUSH4 0x5363AE9B EQ PUSH2 0xE4 JUMPI DUP1 PUSH4 0x61D027B3 EQ PUSH2 0x112 JUMPI JUMPDEST PUSH1 0x0 DUP1 REVERT JUMPDEST PUSH2 0xAB PUSH2 0xA6 CALLDATASIZE PUSH1 0x4 PUSH2 0x94C JUMP JUMPDEST PUSH2 0x21C JUMP JUMPDEST PUSH1 0x40 DUP1 MLOAD SWAP6 DUP7 MSTORE PUSH1 0x20 DUP7 ADD SWAP5 SWAP1 SWAP5 MSTORE SWAP3 DUP5 ADD SWAP2 SWAP1 SWAP2 MSTORE PUSH1 0x60 DUP4 ADD MSTORE ISZERO ISZERO PUSH1 0x80 DUP3 ADD MSTORE PUSH1 0xA0 ADD JUMPDEST PUSH1 0x40 MLOAD DUP1 SWAP2 SUB SWAP1 RETURN JUMPDEST PUSH2 0xE2 PUSH2 0x2A8 JUMP JUMPDEST STOP JUMPDEST PUSH2 0x104 PUSH2 0xF2 CALLDATASIZE PUSH1 0x4 PUSH2 0x97D JUMP JUMPDEST PUSH1 0x0 PUSH1 0x20 DUP2 SWAP1 MSTORE SWAP1 DUP2 MSTORE PUSH1 0x40 SWAP1 KECCAK256 SLOAD DUP2 JUMP JUMPDEST PUSH1 0x40 MLOAD SWAP1 DUP2 MSTORE PUSH1 0x20 ADD PUSH2 0xD1 JUMP JUMPDEST PUSH2 0x139 PUSH32 0x0 DUP2 JUMP JUMPDEST PUSH1 0x40 MLOAD PUSH1 0x1 PUSH1 0x1 PUSH1 0xA0 SHL SUB SWAP1 SWAP2 AND DUP2 MSTORE PUSH1 0x20 ADD PUSH2 0xD1 JUMP JUMPDEST PUSH2 0x18A PUSH2 0x15F CALLDATASIZE PUSH1 0x4 PUSH2 0x94C JUMP JUMPDEST PUSH1 0x1 PUSH1 0x20 DUP2 SWAP1 MSTORE PUSH1 0x0 SWAP2 DUP3 MSTORE PUSH1 0x40 SWAP1 SWAP2 KECCAK256 DUP1 SLOAD SWAP2 DUP2 ADD SLOAD PUSH1 0x2 DUP3 ADD SLOAD PUSH1 0x3 SWAP1 SWAP3 ADD SLOAD SWAP1 SWAP2 SWAP1 PUSH1 0xFF AND DUP5 JUMP JUMPDEST PUSH1 0x40 DUP1 MLOAD SWAP5 DUP6 MSTORE PUSH1 0x20 DUP6 ADD SWAP4 SWAP1 SWAP4 MSTORE SWAP2 DUP4 ADD MSTORE ISZERO ISZERO PUSH1 0x60 DUP3 ADD MSTORE PUSH1 0x80 ADD PUSH2 0xD1 JUMP JUMPDEST PUSH2 0x139 PUSH32 0x0 DUP2 JUMP JUMPDEST PUSH2 0xE2 PUSH2 0x1E1 CALLDATASIZE PUSH1 0x4 PUSH2 0x998 JUMP JUMPDEST PUSH2 0x35C JUMP JUMPDEST PUSH2 0x1F9 PUSH2 0x1F4 CALLDATASIZE PUSH1 0x4 PUSH2 0x9BA JUMP JUMPDEST PUSH2 0x591 JUMP JUMPDEST PUSH1 0x40 MLOAD SWAP1 ISZERO ISZERO DUP2 MSTORE PUSH1 0x20 ADD PUSH2 0xD1 JUMP JUMPDEST PUSH2 0x1F9 PUSH2 0x217 CALLDATASIZE PUSH1 0x4 PUSH2 0x9BA JUMP JUMPDEST PUSH2 0x654 JUMP JUMPDEST PUSH1 0x1 PUSH1 0x1 PUSH1 0xA0 SHL SUB DUP2 AND PUSH1 0x0 SWAP1 DUP2 MSTORE PUSH1 0x1 PUSH1 0x20 DUP2 DUP2 MSTORE PUSH1 0x40 DUP1 DUP5 KECCAK256 DUP2 MLOAD PUSH1 0x80 DUP2 ADD DUP4 MSTORE DUP2 SLOAD DUP1 DUP3 MSTORE SWAP5 DUP3 ADD SLOAD SWAP4 DUP2 ADD DUP5 SWAP1 MSTORE PUSH1 0x2 DUP3 ADD SLOAD SWAP3 DUP2 ADD SWAP3 SWAP1 SWAP3 MSTORE PUSH1 0x3 ADD SLOAD PUSH1 0xFF AND ISZERO ISZERO PUSH1 0x60 DUP3 ADD MSTORE DUP4 SWAP3 DUP4 SWAP3 DUP4 SWAP3 DUP4 SWAP3 SWAP1 SWAP2 PUSH2 0x27C DUP2 DUP4 PUSH2 0xA03 JUMP JUMPDEST DUP4 PUSH1 0x40 ADD MLOAD DUP5 PUSH1 0x60 ADD MLOAD DUP1 ISZERO PUSH2 0x295 JUMPI POP DUP5 PUSH1 0x40 ADD MLOAD TIMESTAMP LT JUMPDEST SWAP4 SWAP12 SWAP3 SWAP11 POP SWAP1 SWAP9 POP SWAP7 POP SWAP1 SWAP5 POP SWAP3 POP POP POP JUMP JUMPDEST CALLER PUSH1 0x0 SWAP1 DUP2 MSTORE PUSH1 0x1 PUSH1 0x20 MSTORE PUSH1 0x40 SWAP1 KECCAK256 PUSH1 0x3 ADD SLOAD PUSH1 0xFF AND PUSH2 0x306 JUMPI PUSH1 0x40 MLOAD PUSH3 0x461BCD PUSH1 0xE5 SHL DUP2 MSTORE PUSH1 0x20 PUSH1 0x4 DUP3 ADD MSTORE PUSH1 0x14 PUSH1 0x24 DUP3 ADD MSTORE PUSH20 0x27379030B1BA34BB32903832B936B4B9B9B4B7B7 PUSH1 0x61 SHL PUSH1 0x44 DUP3 ADD MSTORE PUSH1 0x64 ADD JUMPDEST PUSH1 0x40 MLOAD DUP1 SWAP2 SUB SWAP1 REVERT JUMPDEST CALLER PUSH1 0x0 DUP2 DUP2 MSTORE PUSH1 0x1 PUSH1 0x20 MSTORE PUSH1 0x40 SWAP1 DUP2 SWAP1 KECCAK256 PUSH1 0x3 ADD DUP1 SLOAD PUSH1 0xFF NOT AND SWAP1 SSTORE MLOAD PUSH32 0xBD20E616115B933D187C2929D56282E841784672F376EEB58EB7A4F6DA3AA524 SWAP1 PUSH2 0x352 SWAP1 TIMESTAMP DUP2 MSTORE PUSH1 0x20 ADD SWAP1 JUMP JUMPDEST PUSH1 0x40 MLOAD DUP1 SWAP2 SUB SWAP1 LOG2 JUMP JUMPDEST PUSH1 0x0 DUP3 GT PUSH2 0x3AC JUMPI PUSH1 0x40 MLOAD PUSH3 0x461BCD PUSH1 0xE5 SHL DUP2 MSTORE PUSH1 0x20 PUSH1 0x4 DUP3 ADD MSTORE PUSH1 0x1F PUSH1 0x24 DUP3 ADD MSTORE PUSH32 0x5370656E64696E67206C696D6974206D75737420626520706F73697469766500 PUSH1 0x44 DUP3 ADD MSTORE PUSH1 0x64 ADD PUSH2 0x2FD JUMP JUMPDEST PUSH1 0x0 DUP2 GT PUSH2 0x3FC JUMPI PUSH1 0x40 MLOAD PUSH3 0x461BCD PUSH1 0xE5 SHL DUP2 MSTORE PUSH1 0x20 PUSH1 0x4 DUP3 ADD MSTORE PUSH1 0x19 PUSH1 0x24 DUP3 ADD MSTORE PUSH32 0x4475726174696F6E206D75737420626520706F73697469766500000000000000 PUSH1 0x44 DUP3 ADD MSTORE PUSH1 0x64 ADD PUSH2 0x2FD JUMP JUMPDEST PUSH1 0x40 MLOAD PUSH4 0x70A08231 PUSH1 0xE0 SHL DUP2 MSTORE CALLER PUSH1 0x4 DUP3 ADD MSTORE DUP3 SWAP1 PUSH32 0x0 PUSH1 0x1 PUSH1 0x1 PUSH1 0xA0 SHL SUB AND SWAP1 PUSH4 0x70A08231 SWAP1 PUSH1 0x24 ADD PUSH1 0x20 PUSH1 0x40 MLOAD DUP1 DUP4 SUB DUP2 DUP7 GAS STATICCALL ISZERO DUP1 ISZERO PUSH2 0x462 JUMPI RETURNDATASIZE PUSH1 0x0 DUP1 RETURNDATACOPY RETURNDATASIZE PUSH1 0x0 REVERT JUMPDEST POP POP POP POP PUSH1 0x40 MLOAD RETURNDATASIZE PUSH1 0x1F NOT PUSH1 0x1F DUP3 ADD AND DUP3 ADD DUP1 PUSH1 0x40 MSTORE POP DUP2 ADD SWAP1 PUSH2 0x486 SWAP2 SWAP1 PUSH2 0xA16 JUMP JUMPDEST LT ISZERO PUSH2 0x4D4 JUMPI PUSH1 0x40 MLOAD PUSH3 0x461BCD PUSH1 0xE5 SHL DUP2 MSTORE PUSH1 0x20 PUSH1 0x4 DUP3 ADD MSTORE PUSH1 0x19 PUSH1 0x24 DUP3 ADD MSTORE PUSH32 0x496E73756666696369656E7420555344432062616C616E636500000000000000 PUSH1 0x44 DUP3 ADD MSTORE PUSH1 0x64 ADD PUSH2 0x2FD JUMP JUMPDEST PUSH1 0x40 DUP1 MLOAD PUSH1 0x80 DUP2 ADD DUP3 MSTORE DUP4 DUP2 MSTORE PUSH1 0x0 PUSH1 0x20 DUP3 ADD MSTORE SWAP1 DUP2 ADD PUSH2 0x4F5 DUP4 TIMESTAMP PUSH2 0xA2F JUMP JUMPDEST DUP2 MSTORE PUSH1 0x1 PUSH1 0x20 SWAP2 DUP3 ADD DUP2 SWAP1 MSTORE CALLER PUSH1 0x0 DUP2 DUP2 MSTORE DUP3 DUP5 MSTORE PUSH1 0x40 SWAP1 DUP2 SWAP1 KECCAK256 DUP6 MLOAD DUP2 SSTORE SWAP4 DUP6 ADD MLOAD SWAP3 DUP5 ADD SWAP3 SWAP1 SWAP3 SSTORE SWAP1 DUP4 ADD MLOAD PUSH1 0x2 DUP4 ADD SSTORE PUSH1 0x60 SWAP1 SWAP3 ADD MLOAD PUSH1 0x3 SWAP1 SWAP2 ADD DUP1 SLOAD PUSH1 0xFF NOT AND SWAP2 ISZERO ISZERO SWAP2 SWAP1 SWAP2 OR SWAP1 SSTORE PUSH32 0x96587AB88ED3EBFF489CFA48CC780EAA8E16B96C7F1511FDA778C7470EB79246 DUP4 PUSH2 0x56E DUP5 TIMESTAMP PUSH2 0xA2F JUMP JUMPDEST PUSH1 0x40 DUP1 MLOAD SWAP3 DUP4 MSTORE PUSH1 0x20 DUP4 ADD SWAP2 SWAP1 SWAP2 MSTORE TIMESTAMP SWAP1 DUP3 ADD MSTORE PUSH1 0x60 ADD PUSH1 0x40 MLOAD DUP1 SWAP2 SUB SWAP1 LOG2 POP POP JUMP JUMPDEST PUSH1 0x1 PUSH1 0x1 PUSH1 0xA0 SHL SUB DUP3 AND PUSH1 0x0 SWAP1 DUP2 MSTORE PUSH1 0x1 PUSH1 0x20 DUP2 DUP2 MSTORE PUSH1 0x40 DUP1 DUP5 KECCAK256 DUP2 MLOAD PUSH1 0x80 DUP2 ADD DUP4 MSTORE DUP2 SLOAD DUP2 MSTORE SWAP4 DUP2 ADD SLOAD SWAP3 DUP5 ADD SWAP3 SWAP1 SWAP3 MSTORE PUSH1 0x2 DUP3 ADD SLOAD SWAP1 DUP4 ADD MSTORE PUSH1 0x3 ADD SLOAD PUSH1 0xFF AND ISZERO DUP1 ISZERO PUSH1 0x60 DUP4 ADD MSTORE DUP1 PUSH2 0x5EA JUMPI POP DUP1 PUSH1 0x40 ADD MLOAD TIMESTAMP LT ISZERO JUMPDEST ISZERO PUSH2 0x5F9 JUMPI PUSH1 0x0 SWAP2 POP POP PUSH2 0x64E JUMP JUMPDEST PUSH1 0x0 DUP1 PUSH1 0x0 DUP6 PUSH1 0x2 DUP2 GT ISZERO PUSH2 0x610 JUMPI PUSH2 0x610 PUSH2 0xA42 JUMP JUMPDEST PUSH1 0x2 DUP2 GT ISZERO PUSH2 0x621 JUMPI PUSH2 0x621 PUSH2 0xA42 JUMP JUMPDEST DUP2 MSTORE PUSH1 0x20 ADD SWAP1 DUP2 MSTORE PUSH1 0x20 ADD PUSH1 0x0 KECCAK256 SLOAD SWAP1 POP DUP2 PUSH1 0x0 ADD MLOAD DUP2 DUP4 PUSH1 0x20 ADD MLOAD PUSH2 0x647 SWAP2 SWAP1 PUSH2 0xA2F JUMP JUMPDEST GT ISZERO SWAP3 POP POP POP JUMPDEST SWAP3 SWAP2 POP POP JUMP JUMPDEST PUSH1 0x1 PUSH1 0x1 PUSH1 0xA0 SHL SUB DUP3 AND PUSH1 0x0 SWAP1 DUP2 MSTORE PUSH1 0x1 PUSH1 0x20 MSTORE PUSH1 0x40 DUP2 KECCAK256 PUSH1 0x3 DUP2 ADD SLOAD PUSH1 0xFF AND PUSH2 0x6B7 JUMPI PUSH1 0x40 MLOAD PUSH3 0x461BCD PUSH1 0xE5 SHL DUP2 MSTORE PUSH1 0x20 PUSH1 0x4 DUP3 ADD MSTORE PUSH1 0x14 PUSH1 0x24 DUP3 ADD MSTORE PUSH20 0x27379030B1BA34BB32903832B936B4B9B9B4B7B7 PUSH1 0x61 SHL PUSH1 0x44 DUP3 ADD MSTORE PUSH1 0x64 ADD PUSH2 0x2FD JUMP JUMPDEST DUP1 PUSH1 0x2 ADD SLOAD TIMESTAMP LT PUSH2 0x6FF JUMPI PUSH1 0x40 MLOAD PUSH3 0x461BCD PUSH1 0xE5 SHL DUP2 MSTORE PUSH1 0x20 PUSH1 0x4 DUP3 ADD MSTORE PUSH1 0x12 PUSH1 0x24 DUP3 ADD MSTORE PUSH18 0x14195C9B5A5CDCDA5BDB88195E1C1A5C9959 PUSH1 0x72 SHL PUSH1 0x44 DUP3 ADD MSTORE PUSH1 0x64 ADD PUSH2 0x2FD JUMP JUMPDEST PUSH1 0x0 DUP1 PUSH1 0x0 DUP6 PUSH1 0x2 DUP2 GT ISZERO PUSH2 0x716 JUMPI PUSH2 0x716 PUSH2 0xA42 JUMP JUMPDEST PUSH1 0x2 DUP2 GT ISZERO PUSH2 0x727 JUMPI PUSH2 0x727 PUSH2 0xA42 JUMP JUMPDEST DUP2 MSTORE PUSH1 0x20 ADD SWAP1 DUP2 MSTORE PUSH1 0x20 ADD PUSH1 0x0 KECCAK256 SLOAD SWAP1 POP DUP2 PUSH1 0x0 ADD SLOAD DUP2 DUP4 PUSH1 0x1 ADD SLOAD PUSH2 0x74D SWAP2 SWAP1 PUSH2 0xA2F JUMP JUMPDEST GT ISZERO PUSH2 0x79B JUMPI PUSH1 0x40 MLOAD PUSH3 0x461BCD PUSH1 0xE5 SHL DUP2 MSTORE PUSH1 0x20 PUSH1 0x4 DUP3 ADD MSTORE PUSH1 0x1E PUSH1 0x24 DUP3 ADD MSTORE PUSH32 0x496E73756666696369656E74207065726D697373696F6E206275646765740000 PUSH1 0x44 DUP3 ADD MSTORE PUSH1 0x64 ADD PUSH2 0x2FD JUMP JUMPDEST PUSH1 0x40 MLOAD PUSH4 0x23B872DD PUSH1 0xE0 SHL DUP2 MSTORE PUSH1 0x1 PUSH1 0x1 PUSH1 0xA0 SHL SUB DUP7 DUP2 AND PUSH1 0x4 DUP4 ADD MSTORE PUSH32 0x0 DUP2 AND PUSH1 0x24 DUP4 ADD MSTORE PUSH1 0x44 DUP3 ADD DUP4 SWAP1 MSTORE PUSH32 0x0 AND SWAP1 PUSH4 0x23B872DD SWAP1 PUSH1 0x64 ADD PUSH1 0x20 PUSH1 0x40 MLOAD DUP1 DUP4 SUB DUP2 PUSH1 0x0 DUP8 GAS CALL ISZERO DUP1 ISZERO PUSH2 0x832 JUMPI RETURNDATASIZE PUSH1 0x0 DUP1 RETURNDATACOPY RETURNDATASIZE PUSH1 0x0 REVERT JUMPDEST POP POP POP POP PUSH1 0x40 MLOAD RETURNDATASIZE PUSH1 0x1F NOT PUSH1 0x1F DUP3 ADD AND DUP3 ADD DUP1 PUSH1 0x40 MSTORE POP DUP2 ADD SWAP1 PUSH2 0x856 SWAP2 SWAP1 PUSH2 0xA58 JUMP JUMPDEST PUSH2 0x899 JUMPI PUSH1 0x40 MLOAD PUSH3 0x461BCD PUSH1 0xE5 SHL DUP2 MSTORE PUSH1 0x20 PUSH1 0x4 DUP3 ADD MSTORE PUSH1 0x14 PUSH1 0x24 DUP3 ADD MSTORE PUSH20 0x1554D110C81D1C985B9CD9995C8819985A5B1959 PUSH1 0x62 SHL PUSH1 0x44 DUP3 ADD MSTORE PUSH1 0x64 ADD PUSH2 0x2FD JUMP JUMPDEST DUP1 DUP3 PUSH1 0x1 ADD PUSH1 0x0 DUP3 DUP3 SLOAD PUSH2 0x8AD SWAP2 SWAP1 PUSH2 0xA2F JUMP JUMPDEST SWAP1 SWAP2 SSTORE POP POP PUSH1 0x1 DUP3 ADD SLOAD DUP3 SLOAD PUSH1 0x0 SWAP2 PUSH2 0x8C5 SWAP2 PUSH2 0xA03 JUMP JUMPDEST SWAP1 POP DUP5 PUSH1 0x2 DUP2 GT ISZERO PUSH2 0x8D9 JUMPI PUSH2 0x8D9 PUSH2 0xA42 JUMP JUMPDEST PUSH1 0x40 DUP1 MLOAD DUP5 DUP2 MSTORE PUSH1 0x20 DUP2 ADD DUP5 SWAP1 MSTORE TIMESTAMP DUP2 DUP4 ADD MSTORE SWAP1 MLOAD PUSH1 0x1 PUSH1 0x1 PUSH1 0xA0 SHL SUB DUP10 AND SWAP2 PUSH32 0x6307847D523C4F1F95B83663C4D3DF4F4681A55D9CE8DC188B4372863EBE7FC1 SWAP2 SWAP1 DUP2 SWAP1 SUB PUSH1 0x60 ADD SWAP1 LOG3 POP PUSH1 0x1 SWAP6 SWAP5 POP POP POP POP POP JUMP JUMPDEST DUP1 CALLDATALOAD PUSH1 0x1 PUSH1 0x1 PUSH1 0xA0 SHL SUB DUP2 AND DUP2 EQ PUSH2 0x947 JUMPI PUSH1 0x0 DUP1 REVERT JUMPDEST SWAP2 SWAP1 POP JUMP JUMPDEST PUSH1 0x0 PUSH1 0x20 DUP3 DUP5 SUB SLT ISZERO PUSH2 0x95E JUMPI PUSH1 0x0 DUP1 REVERT JUMPDEST PUSH2 0x967 DUP3 PUSH2 0x930 JUMP JUMPDEST SWAP4 SWAP3 POP POP POP JUMP JUMPDEST DUP1 CALLDATALOAD PUSH1 0x3 DUP2 LT PUSH2 0x947 JUMPI PUSH1 0x0 DUP1 REVERT JUMPDEST PUSH1 0x0 PUSH1 0x20 DUP3 DUP5 SUB SLT ISZERO PUSH2 0x98F JUMPI PUSH1 0x0 DUP1 REVERT JUMPDEST PUSH2 0x967 DUP3 PUSH2 0x96E JUMP JUMPDEST PUSH1 0x0 DUP1 PUSH1 0x40 DUP4 DUP6 SUB SLT ISZERO PUSH2 0x9AB JUMPI PUSH1 0x0 DUP1 REVERT JUMPDEST POP POP DUP1 CALLDATALOAD SWAP3 PUSH1 0x20 SWAP1 SWAP2 ADD CALLDATALOAD SWAP2 POP JUMP JUMPDEST PUSH1 0x0 DUP1 PUSH1 0x40 DUP4 DUP6 SUB SLT ISZERO PUSH2 0x9CD JUMPI PUSH1 0x0 DUP1 REVERT JUMPDEST PUSH2 0x9D6 DUP4 PUSH2 0x930 JUMP JUMPDEST SWAP2 POP PUSH2 0x9E4 PUSH1 0x20 DUP5 ADD PUSH2 0x96E JUMP JUMPDEST SWAP1 POP SWAP3 POP SWAP3 SWAP1 POP JUMP JUMPDEST PUSH4 0x4E487B71 PUSH1 0xE0 SHL PUSH1 0x0 MSTORE PUSH1 0x11 PUSH1 0x4 MSTORE PUSH1 0x24 PUSH1 0x0 REVERT JUMPDEST DUP2 DUP2 SUB DUP2 DUP2 GT ISZERO PUSH2 0x64E JUMPI PUSH2 0x64E PUSH2 0x9ED JUMP JUMPDEST PUSH1 0x0 PUSH1 0x20 DUP3 DUP5 SUB SLT ISZERO PUSH2 0xA28 JUMPI PUSH1 0x0 DUP1 REVERT JUMPDEST POP MLOAD SWAP2 SWAP1 POP JUMP JUMPDEST DUP1 DUP3 ADD DUP1 DUP3 GT ISZERO PUSH2 0x64E JUMPI PUSH2 0x64E PUSH2 0x9ED JUMP JUMPDEST PUSH4 0x4E487B71 PUSH1 0xE0 SHL PUSH1 0x0 MSTORE PUSH1 0x21 PUSH1 0x4 MSTORE PUSH1 0x24 PUSH1 0x0 REVERT JUMPDEST PUSH1 0x0 PUSH1 0x20 DUP3 DUP5 SUB SLT ISZERO PUSH2 0xA6A JUMPI PUSH1 0x0 DUP1 REVERT JUMPDEST DUP2 MLOAD DUP1 ISZERO ISZERO DUP2 EQ PUSH2 0x967 JUMPI PUSH1 0x0 DUP1 REVERT INVALID LOG2 PUSH5 0x6970667358 0x22 SLT KECCAK256 EXTCODESIZE 0xA8 0xDF CODESIZE 0x4F LOG1 0x2E DUP6 CHAINID 0xF9 0x27 0xAD LOG0 0xB4 PUSH20 0xA5834C09C81A5BCAE83E9D448A0A2FB46564736F PUSH13 0x63430008170033000000000000 "},"methodIdentifiers":{"USDC()":"89a30271","canExecuteService(address,uint8)":"d0a605ad","executeService(address,uint8)":"fb19db83","getPermissionStatus(address)":"43213837","grantPermission(uint256,uint256)":"9e2a7bc1","revokePermission()":"4debb5a8","servicePrices(uint8)":"5363ae9b","treasury()":"61d027b3","userPermissions(address)":"85fb9422"}}}}}