{
  "_format": "hh-sol-artifact-1",
  "contractName": "ServiceRegistry",
  "sourceName": "contracts/ServiceRegistry.sol",
  "abi": [
    {
      "inputs": [],
      "stateMutability": "nonpayable",
      "type": "constructor"
    },
    {
      "anonymous": false,
      "inputs": [
        {
          "indexed": true,
          "internalType": "uint8",
          "name": "serviceId",
          "type": "uint8"
        },
        {
          "indexed": false,
          "internalType": "string",
          "name": "name",
          "type": "string"
        },
        {
          "indexed": false,
          "internalType": "uint256",
          "name": "price",
          "type": "uint256"
        }
      ],
      "name": "ServiceAdded",
      "type": "event"
    },
    {
      "anonymous": false,
      "inputs": [
        {
          "indexed": true,
          "internalType": "uint8",
          "name": "serviceId",
          "type": "uint8"
        },
        {
          "indexed": false,
          "internalType": "bool",
          "name": "isActive",
          "type": "bool"
        }
      ],
      "name": "ServiceToggled",
      "type": "event"
    },
    {
      "anonymous": false,
      "inputs": [
        {
          "indexed": true,
          "internalType": "uint8",
          "name": "serviceId",
          "type": "uint8"
        },
        {
          "indexed": false,
          "internalType": "uint256",
          "name": "newPrice",
          "type": "uint256"
        }
      ],
      "name": "ServiceUpdated",
      "type": "event"
    },
    {
      "inputs": [
        {
          "internalType": "uint8",
          "name": "serviceId",
          "type": "uint8"
        }
      ],
      "name": "getService",
      "outputs": [
        {
          "internalType": "string",
          "name": "name",
          "type": "string"
        },
        {
          "internalType": "string",
          "name": "description",
          "type": "string"
        },
        {
          "internalType": "uint256",
          "name": "price",
          "type": "uint256"
        },
        {
          "internalType": "bool",
          "name": "isActive",
          "type": "bool"
        },
        {
          "internalType": "uint256",
          "name": "totalExecutions",
          "type": "uint256"
        }
      ],
      "stateMutability": "view",
      "type": "function"
    },
    {
      "inputs": [
        {
          "internalType": "uint8",
          "name": "serviceId",
          "type": "uint8"
        }
      ],
      "name": "incrementExecutions",
      "outputs": [],
      "stateMutability": "nonpayable",
      "type": "function"
    },
    {
      "inputs": [],
      "name": "owner",
      "outputs": [
        {
          "internalType": "address",
          "name": "",
          "type": "address"
        }
      ],
      "stateMutability": "view",
      "type": "function"
    },
    {
      "inputs": [],
      "name": "serviceCount",
      "outputs": [
        {
          "internalType": "uint8",
          "name": "",
          "type": "uint8"
        }
      ],
      "stateMutability": "view",
      "type": "function"
    },
    {
      "inputs": [
        {
          "internalType": "uint8",
          "name": "",
          "type": "uint8"
        }
      ],
      "name": "services",
      "outputs": [
        {
          "internalType": "string",
          "name": "name",
          "type": "string"
        },
        {
          "internalType": "string",
          "name": "description",
          "type": "string"
        },
        {
          "internalType": "uint256",
          "name": "price",
          "type": "uint256"
        },
        {
          "internalType": "bool",
          "name": "isActive",
          "type": "bool"
        },
        {
          "internalType": "uint256",
          "name": "totalExecutions",
          "type": "uint256"
        }
      ],
      "stateMutability": "view",
      "type": "function"
    },
    {
      "inputs": [
        {
          "internalType": "uint8",
          "name": "serviceId",
          "type": "uint8"
        },
        {
          "internalType": "bool",
          "name": "isActive",
          "type": "bool"
        }
      ],
      "name": "toggleService",
      "outputs": [],
      "stateMutability": "nonpayable",
      "type": "function"
    },
    {
      "inputs": [
        {
          "internalType": "uint8",
          "name": "serviceId",
          "type": "uint8"
        },
        {
          "internalType": "uint256",
          "name": "newPrice",
          "type": "uint256"
        }
      ],
      "name": "updateServicePrice",
      "outputs": [],
      "stateMutability": "nonpayable",
      "type": "function"
    }
  ],
  "bytecode": "0x60806040523480156200001157600080fd5b50600080546001600160a01b03191633179055604080518082018252601281527121b7b73a3930b1ba1024b739b832b1ba37b960711b6020808301919091528251808401909352601783527f536d61727420636f6e747261637420616e616c79736973000000000000000000908301526200009091620493e06200017d565b62000104604051806040016040528060118152602001702bb0b63632ba102932b83aba30ba34b7b760791b8152506040518060400160405280601d81526020017f4265686176696f722d62617365642077616c6c65742073636f72696e6700000081525062061a806200017d60201b60201c565b620001776040518060400160405280601081526020016f4164647265737320496e73696768747360801b8152506040518060400160405280601481526020017f446565702077616c6c657420616e616c797369730000000000000000000000008152506207a1206200017d60201b60201c565b62000484565b6040805160a081018252848152602080820185905281830184905260016060830181905260006080840181905260025460ff16815291529190912081518190620001c8908262000333565b5060208201516001820190620001df908262000333565b50604082810151600283810191909155606084015160038401805460ff19169115159190911790556080909301516004909201919091559054905160ff909116907f517a8f8420567c4482b86333634d2ac19edc826a9155d1e962cd679d6bc74f8f90620002519086908590620003ff565b60405180910390a26002805460ff169060006200026e8362000456565b91906101000a81548160ff021916908360ff16021790555050505050565b634e487b7160e01b600052604160045260246000fd5b600181811c90821680620002b757607f821691505b602082108103620002d857634e487b7160e01b600052602260045260246000fd5b50919050565b601f8211156200032e576000816000526020600020601f850160051c81016020861015620003095750805b601f850160051c820191505b818110156200032a5782815560010162000315565b5050505b505050565b81516001600160401b038111156200034f576200034f6200028c565b6200036781620003608454620002a2565b84620002de565b602080601f8311600181146200039f5760008415620003865750858301515b600019600386901b1c1916600185901b1785556200032a565b600085815260208120601f198616915b82811015620003d057888601518255948401946001909101908401620003af565b5085821015620003ef5787850151600019600388901b60f8161c191681555b5050505050600190811b01905550565b604081526000835180604084015260005b818110156200042f576020818701810151606086840101520162000410565b506000606082850101526060601f19601f8301168401019150508260208301529392505050565b600060ff821660ff81036200047b57634e487b7160e01b600052601160045260246000fd5b60010192915050565b6107ec80620004946000396000f3fe608060405234801561001057600080fd5b506004361061007d5760003560e01c8063b039c39e1161005b578063b039c39e146100f5578063b426cbeb1461010a578063e0cf1dab1461011d578063fa05419a1461013057600080fd5b806306237526146100825780636c4cd58e146100a65780638da5cb5b146100ca575b600080fd5b60025461008f9060ff1681565b60405160ff90911681526020015b60405180910390f35b6100b96100b436600461061b565b610143565b60405161009d959493929190610683565b6000546100dd906001600160a01b031681565b6040516001600160a01b03909116815260200161009d565b6101086101033660046106c6565b6102e8565b005b610108610118366004610702565b6103b8565b61010861012b36600461061b565b610470565b6100b961013e36600461061b565b6104c1565b606080600080600080600160008860ff1660ff1681526020019081526020016000206040518060a00160405290816000820180546101809061072c565b80601f01602080910402602001604051908101604052809291908181526020018280546101ac9061072c565b80156101f95780601f106101ce576101008083540402835291602001916101f9565b820191906000526020600020905b8154815290600101906020018083116101dc57829003601f168201915b505050505081526020016001820180546102129061072c565b80601f016020809104026020016040519081016040528092919081815260200182805461023e9061072c565b801561028b5780601f106102605761010080835404028352916020019161028b565b820191906000526020600020905b81548152906001019060200180831161026e57829003601f168201915b50505091835250506002820154602080830191909152600383015460ff1615156040808401919091526004909301546060928301528351908401519284015191840151608090940151909b929a5090985091965090945092505050565b6000546001600160a01b031633146103335760405162461bcd60e51b81526020600482015260096024820152682737ba1037bbb732b960b91b60448201526064015b60405180910390fd5b60025460ff9081169083161061035b5760405162461bcd60e51b815260040161032a90610766565b60ff8216600081815260016020908152604091829020600301805460ff191685151590811790915591519182527f185c4205c6cc3ea88c02486403f51bba30e816326d9c197e38f49970612d078d91015b60405180910390a25050565b6000546001600160a01b031633146103fe5760405162461bcd60e51b81526020600482015260096024820152682737ba1037bbb732b960b91b604482015260640161032a565b60025460ff908116908316106104265760405162461bcd60e51b815260040161032a90610766565b60ff821660008181526001602052604090819020600201839055517fbc1fad79e61cc2f83e1532ad747bd50db99d73ee3d5e9e3f6fba078432d874ba906103ac9084815260200190565b60025460ff908116908216106104985760405162461bcd60e51b815260040161032a90610766565b60ff811660009081526001602052604081206004018054916104b98361078f565b919050555050565b6001602052600090815260409020805481906104dc9061072c565b80601f01602080910402602001604051908101604052809291908181526020018280546105089061072c565b80156105555780601f1061052a57610100808354040283529160200191610555565b820191906000526020600020905b81548152906001019060200180831161053857829003601f168201915b50505050509080600101805461056a9061072c565b80601f01602080910402602001604051908101604052809291908181526020018280546105969061072c565b80156105e35780601f106105b8576101008083540402835291602001916105e3565b820191906000526020600020905b8154815290600101906020018083116105c657829003601f168201915b50505050600283015460038401546004909401549293909260ff909116915085565b803560ff8116811461061657600080fd5b919050565b60006020828403121561062d57600080fd5b61063682610605565b9392505050565b6000815180845260005b8181101561066357602081850181015186830182015201610647565b506000602082860101526020601f19601f83011685010191505092915050565b60a08152600061069660a083018861063d565b82810360208401526106a8818861063d565b60408401969096525050911515606083015260809091015292915050565b600080604083850312156106d957600080fd5b6106e283610605565b9150602083013580151581146106f757600080fd5b809150509250929050565b6000806040838503121561071557600080fd5b61071e83610605565b946020939093013593505050565b600181811c9082168061074057607f821691505b60208210810361076057634e487b7160e01b600052602260045260246000fd5b50919050565b6020808252600f908201526e496e76616c6964207365727669636560881b604082015260600190565b6000600182016107af57634e487b7160e01b600052601160045260246000fd5b506001019056fea264697066735822122038362552f4d4f90ab0dcd2834c6eac611c2034afc084a6b085590cc5ab02771f64736f6c63430008170033",
  "linkReferences": {},
  "deployedLinkReferences": {}
}